:20000000008020204F0D0000470D0000470D0000000000000000000000000000000000001C
:20002000000000000000000000000000470D00000000000000000000470D0000470D0000C4
:20004000470D0000470D0000470D0000470D0000470D0000470D0000470D0000470D000000
:2000600000000000470D0000470D00000000000000000000470D0000470D00002D050000FE
:20008000470D0000470D0000470D0000470D0000470D0000470D0000000000000000000068
:2000A000470D0000470D00000000000000000000470D000000000000470D0000470D00009C
:2000C000F0B5FFB08CB0049315460646909800908A913468204600F014FE20180021899108
:2000E0000290844244D20022859285A803920273641C0F46601E0078002834D0252806D008
:2001000034602946049A90477F1C641CF2E70398C04301908997601C03903060207885A9BF
:200120000873732809D18AA989AA2846049B00F021F88999039C019A11E005AC85A98AAAF3
:20014000204600F035F8024620462946009B9847411C019A114600D0C1198991039C481C6F
:200160000298BED100E03A4610467FB00CB0F0BD0A46F9E7F8B504460868051D0D60066874
:20018000002E11D0009414461D46304600F0B9FD07462068C01920600024BC4207DA305D25
:2001A0000099A847641CF8E7002021469847F8BDF0B585B001920E4604467F2080002518D6
:2001C00000270397FF210291FE312022204600F091FD04956F70307B252852D06B1C78289D
:2001E00013D0642811D06F280FD0632820D1019A1068011D11600168C8B247424741029A8B
:200200001046FC302018297014E01D4603A904AA3046019B00F03BF803980499002803D072
:20022000481E2D220A7000E00846029A2B4601E02846029A191A0029254601DC611A4D1CE1
:20024000411C530000262846324600F0BCFB002F02D0411C067000E00146A14206D8481E19
:20026000611A491C202200F045FD2670291B2022204600F03FFD204600F043FDC01905B058
:20028000F0BD00206070252020700120F7E7F8B514460D460646077B194600F014F8317BBE
:2002A000642904D1002802D50121296040426F2F01D00A2100E00821782F00D110212246FC
:2002C00000F012F8F8BD007B642805D06F2803D0782801D0702804D10868021D0A600068EA
:2002E000704700207047C046F8B514460D460646002804D12068411E2160302101700A4F44
:20030000002E0DD03046294600F010F801466943711A795C2268531E236011700646EFE781
:20032000206800F0EEFCF8BD580D000080B5102903D0082903D1C00880BD000980BD00F0C0
:200340005BFA80BD80B582B001A90870FFE701A80078C007002806D0FFE7012081031A48C9
:2003600000F0BCFB05E001208103174800F04CFCFFE7FFE7FFE701988007C00F002806D016
:20038000FFE70120C103104800F0A8FB05E00120C1030D4800F038FCFFE7FFE7FFE7019819
:2003A0004007C00F002806D0FFE701200104064800F094FB05E001200104034800F024FCEA
:2003C000FFE7FFE702B080BD00000A40F8B5451C00780023082B32D02F78C2070CD16A780B
:2003E0000F241440E41C122C0BD102242E57F4B2002E08D4EE1C0EE06D1C4A1C0F70114644
:200400001AE0AE1C08E02E1DED7800957F252C40009DED012C1912343D0112095219094DAB
:20042000AA420ED0D243002C05D08D5C4F1C0D70641E3946F7E7354640085B1CCAE72846D3
:20044000C5E7F8BDFF0F000085B0049026200090049840010390174800680290FFE7154882
:20046000006801900198029988421FD0FFE701980299884207D2FFE702980199411A0098CC
:200480004018009009E00C4800680199401A02994118009840180090FFE7019802900098BE
:2004A0000399884201D3FFE701E0FFE7D7E705B07047C04618E000E014E000E080B582B012
:2004C0000020019000F052FB00F07DFBFFE7124800F04CF9114900200860FFE70F480068CA
:2004E000072811DCFFE70D48006882000D49895842000948825A0C4800F048F8FFE707495B
:200500000868401C0860E9E7054800F03FF81E2000F064FBDBE7C0469C012020AC01202044
:20052000980D000070012020740D000080B582B001A900200870114800F098FB0B281AD141
:20054000FFE70E4800F088FB01A908700C4800887E2808DCFFE70198094B1A88511C1980E9
:200560000849885403E0064900200880FFE706490120087000E0FFE702B080BD0080104021
:2005800098012020F00020209A01202083B01EB505AC0EC401900F48006880470E4A906986
:2005A000401C0DD005A902910C48009018320C4B01A8FFF785FD04460A480068804704E06C
:2005C0000848006880470020C44320461EBC02BC03B008479001202000002020390D00001E
:2005E000310D00009401202080B584B014200221019100F019FA0199152000F0F5F92320A3
:2006000000F054FA242000F051FA252000F04EFA002200920120C3042620114600F02AF954
:200620000720810303910548029000F0F7FA0298039900F023FA04B080BDC04600000A4037
:2006400080B584B00390029101A900200880FFE703980078002814D0FFE7FFE70B4800F0A5
:2006600061FA002801D0FFE7F8E70398411C03910178064800F09CFA0198401C01A9088061
:20068000E6E701A8008804B080BDC0460080104080B584B003900291019203980B4940182C
:2006A00002990B4A00F042F903980A49401801993F2200F03BF90399074A88188958012229
:2006C000114000F033F904B080BDC04610110000FFFF0000141100000411000070B5112205
:2006E0001302C218C4580125AC43C4500C888D7825438C882C43C558084E2E40084D2540A7
:20070000AC19C4508879CB790343087A184351687E23994318400818506070BDE798FDFF92
:200720001867000080B582B00D490E48019000F0A6FA01980C49FFF7D1FF0198002100F0A8
:2007400063F9019802210B22FFF7A2FF01980121890200F085F9019800F01FFA02B080BD78
:20076000960D0000008010406A0D000080B584B0039002A900200870FFE702A80078072819
:2007800015DCFFE702A801900078FFF7DBFD322000F0A0FA00F0DEF9019A0399127852004B
:2007A0008852FFE70298401C02A90870E5E704B080BD704780B584B00C48019000F082F933
:2007C0000B48029000F07EF90A48039000F0B6F9019800F05FF9029800F05CF9039800F0FE
:2007E00095F9102000F09BFA04B080BD00000A4000200A40008010401CB50A0017D000235C
:200800000124E407A04200D20400944201D95200FBE790425B41904200D3801A914201D2D9
:200820005208F6E719000200080011001CBD01000020FFF7BEFF1CBD70B50A480A4C844234
:200840000CD00A4D0A4EB54208D02A686968501C12789200A25890470835F4E700BF00BFEC
:2008600070BDC046F40D0000E80D0000FC0D00000C0E000010B584B0069C039002910192D8
:20088000009302980199084300990843069908430349084303998900024A885004B010BD17
:2008A000810004000480424081B001466846017000214056002809D4FFE7684601781F200E
:2008C00001400120884002490860FFE701B0704780E200E081B0014668460170002140565D
:2008E000002809D4FFE7684601781F2001400120884002490860FFE701B0704700E100E0BB
:2009000080B582B001900091FFE7074800F00AF9002801D0FFE7F8E701A80178024800F00C
:2009200047F9019802B080BD0080104084B0039002910192039800680090009801998843A2
:20094000009000980299019A114008430399086004B0704781B000900549042008600098FB
:20096000401E0449086004490020086001B0704710E000E014E000E018E000E0084880F3E8
:20098000088800BF00BF00F0E4F9002801D0FFF753FF0020FFF792FD012000F0D1F9C046B5
:2009A0000080202080B582B00020019000F0A2F8019800F047F800F07DF900F039F900F095
:2009C00041F902B080BDB0B504460020002B08D0D2B20D782570954204D0641C491C5B1E75
:2009E000F7D1B0BD601CB0BD82B00190009100980349084301998900024A885002B07047A6
:200A0000800004000480424080B582B001900091019811210902401800990322D203FFF70C
:200A200085FF02B080BD704782B00190009100988021084301998900014A885002B0704705
:200A40000480424080B582B0014601A80170017802480322FFF76AFF02B080BD00010B4046
:200A600082B001900091009B0199034A88581843885002B07047C0462810000082B0019023
:200A8000009100980199024A885002B07047C046D012000081B0009000990120C202024895
:200AA000885001B07047C0460100002681B0009000988100024A8120885001B07047C046BC
:200AC0000480424081B000900099024A0248885001B0704704080000030000B182B001905D
:200AE000009100980199024A885002B07047C0469012000081B001466846017000780249A4
:200B0000086001B07047C04608030B4081B0009000990120C2020248885001B07047C046DA
:200B20000100002681B000900098034940580121084001B07047C0460811000081B000909F
:200B40000099024A0248885001B0704704080000030000B180B501204104034800F012F886
:200B6000411E884180BDC04600000A4080B5FFF721FEFFF739FDFFF715FFFFF7D3FD00F08A
:200B8000B1F880BD82B00190009101982721C90140580099084002B0704781B00090009934
:200BA00011200202885801231843885001B0704782B001906846017000780199892252016F
:200BC000885002B0704780B582B00F200190FFF76BFE0198FFF77EFE02B080BD80B582B0ED
:200BE000019001997D20C0004843FFF72DFC02B080BD03228058002805D0401E4A1C0023F3
:200C00000B701146F7E7704782B0019000910098019995225201885002B0704782B00190D9
:200C200000910098019995225201885002B070470349086801221202904308607047C046BB
:200C400008010B400349086801221203104308607047C04604010B4081B0009000980249E0
:200C60004058C0B201B070472411000081B000900098812149014058C0B201B0704710B551
:200C80000122120383180C789C604978815010BD10B500239A4203D0CC5CC4545B1CF9E774
:200CA00010BD80B50B4603214258C11D184600F03BF880BD024908680122904308607047B7
:200CC00008010B4002490868052210430860704710E000E080B582B001900198FFF7B4FB66
:200CE00002B080BD80B52020FFF734FEFFF7EAFF80BD00000B4611461A4680B500F008F81F
:200D000080BD0021425C491C002AFBD1481E704700239A4202D0C1545B1CFAE77047811ECB
:200D2000091F00BFFCD2704780B5FFF7B1FF80BD80B5FFF7E5FD80BD80B5FFF781FC80BD00
:180D400000F003F8FEE7FFE7FEE700BF704715E6704701207047000000
:200D5800303132333435363738396162636465660000000018000000003000005B202573BE
:200D78003A2564205D005835005833005838005837005834005832005836005831000400B3
:080D98000A0000000000000049
:200DA000005500000F0112014001018F012202C01502030F01240440FF000004BF02017F2F
:200DC0007EBE013F6E930D00008D003081AA00708A00B07E00F0900130871A01708401B081
:200DE000270A00331970FFF0CD030000A30C0000F30B00000200000014000000A00D0000D7
:100E000000002020F40D00009C01202000000000C4
:00000001FF
