:020000040000FA
:1000000060092020D5000000D9000000DB000000BE
:1000100000000000000000000000000000000000E0
:10002000000000000000000000000000DD000000F3
:100030000000000000000000DF000000E100000000
:10004000E3000000890F0000E3000000E30000006F
:10005000E3000000E3000000E3000000E300000014
:1000600000000000E3000000E300000000000000CA
:1000700000000000E3000000E3000000E3000000D7
:10008000E3000000A12B0000E30000007D2B000036
:10009000E3000000E300000000000000000000009A
:1000A000E3000000E300000000000000000000008A
:1000B000E300000000000000E3000000E300000097
:1000C0000348854600F014FA004800474D2E000012
:1000D0006009202003480047FEE7FEE7FEE7FEE751
:1000E000FEE7FEE7C1000000F8B502464A40D40F23
:1000F00042004B0052085B089A4202D20246084670
:1001000011464A0023D0C30D4A00DDB2120EAD1ACB
:10011000202D35DA49020126490AF6058A19002CF4
:1001200000D0524220214F1B1146B9402A411018DD
:10013000C20D9A4221D0002C17D0012D08DCDA051F
:10014000801AD20F8019D207DBB200F039F9F8BD5E
:10015000DA05801A012340001B06C01880185A4295
:100160008018CA0F1043490007E04908C20711432D
:10017000DA05801A80194008801800F019F9F8BDD6
:1001800061000122511A001BF7E70122D2075140FA
:10019000AAE70122D2075040A6E7024670B54A40BE
:1001A000D30FDB0740002DD04A002AD0010E140ED9
:1001B000000212020919400A520A8418E501044695
:1001C0005443000A120A2E045043A4194219200C69
:1001D000C543AA18120C0125AD03521C5219120472
:1001E0007F39240400D0521C104301D44000491E22
:1001F000C2B20C06C0092018401C4008802A02D058
:1002000003E0002070BD40084000002900DA002013
:10021000184370BD70B502464A40D50F40004A00F1
:10022000ED0740085208002814D0002A12D0C40D4F
:10023000D30D41020120C0055202490A520AE41AB4
:10024000091812187D34914201D3641C00E0490062
:10025000002C01DA002070BD0023914201D3891ADD
:100260000343400849000028F7D100290AD09142F1
:1002700002D10121C90705E0914201D2012101E02B
:100280000121C943E005C018401900F091F870BD84
:100290000122D207002800DB101A002900DB511AC6
:1002A000814201D801207047002070470122D20707
:1002B000002800DB101A002900DB511A814201D30B
:1002C0000120704700207047C217C10F504010B581
:1002D0004018CA079623002100F072F810BD0000F4
:1002E0000EB5C217C10F5040CA0740180021054B78
:1002F0000293019200910A460B4600F0A7F803B062
:1003000000BD000033040000C20F41004002012381
:10031000400ADB05D207090EC0187F2901DA002048
:100320007047962903DC9623591AC84001E0963994
:100330008840002AF4D040427047CB0FDB074900C9
:1003400010B5490802460A4307D00A0D07240903DD
:10035000E401090B121B002A01DC002010BDC900BA
:10036000440F0C43C100E018D205801800F020F8BB
:1003700010BD70B50446002903D0002020220123BF
:1003800010E0002801D00020C043C046C0460DE068
:100390002546D5408D4205D30D469540641B1D462C
:1003A000954040191546521E002DF1DC214670BDC6
:1003B000002904DA401C490001D140084000704780
:1003C00070B40024050C05D11024000402D10029CA
:1003D00021D01124050E01D100020834050F01D1EE
:1003E0000001241D850F01D18000A41C002801DB21
:1003F0004000641C002908D020252E1B0D46F54026
:10040000A14000D001212943084301061B1B000A1B
:10041000DB1D02D5002070BC7047DB051818801862
:100420000029F8DA401C4900F5D170BC40084000B2
:10043000704710B5002B08DA0024401C6141921867
:100440005B411A4301D14008400010BDF0B51FB414
:1004500082B005460C0003D0084602F05DFD02E0C4
:1004600002F05AFD2030024600902146284600F056
:1004700051F8049B059A04460F461843114308435C
:1004800014D0184610431BD0009840210A1A184671
:10049000059900F04FF805460E46009A0599049814
:1004A00000F038F8084305D0012004E02046394622
:1004B00007B0F0BD0020C11705430E432C4337435E
:1004C00000990E986305401A7905E40A00220C434E
:1004D000FD0A0A3002D500200146E9E7010510199E
:1004E00069410C9C0D9D00196941FFF7A2FFDFE7F0
:1004F000064C0125064E05E0E36807CC2B430C3C77
:1005000098471034B442F7D3FFF7DEFDDC49000012
:10051000FC49000010B5202A04DB0146203A914036
:10052000002010BD914020239C1A0346E34019434C
:10053000904010BD10B5202A04DB0846203AD04078
:10054000002110BD0B46D340D0402024A21A914078
:100550000843194610BD000080B586B005A9087093
:1005600000200490059903A800900170007840B223
:10057000FFF7AAFE0146194801900068FFF7B4FD95
:10058000019A014600981160007841B2AF208000C6
:100590004843FFF799FE014601980291006810490F
:1005A000FFF7FBFD01460298FFF79EFD04900498BB
:1005B0000C49FFF76DFE002803D1FFE709480490BE
:1005C000FFE704980849FFF771FE002803D1FFE711
:1005D00005480490FFE7049806B080BD2000202065
:1005E0000AD7A33C00009644000096C40C4801784A
:1005F0000C4A117041780C4A117081780B4A1170C5
:10060000C1780B4A117001790A4A117041790A4A7E
:1006100011708179094A1170C079094908707047D1
:10062000240020206D0220206E0220206F02202056
:1006300070022020710220207202202073022020EC
:1006400074022020811E091F00BFFCD2704784B0B5
:10065000039002910192039800680090009801991C
:100660008843009000980299019A11400843039929
:10067000086004B07047000082B001900091009BB8
:100680000199094A88581843885002B07047C046FB
:1006900082B001900091009B0199034A8858184349
:1006A000885002B07047C0464810000082B00190E8
:1006B00000910098019995225201885002B070472C
:1006C00082B00190009100980199952252018850C2
:1006D00002B0704782B00190009100980199952274
:1006E0005201885002B0704782B001900091009B87
:1006F0000199034A88581843885002B07047C04691
:100700002810000082B00190009100980199024ADF
:10071000885002B07047C046D012000081B00090EF
:1007200000990120C2020248885001B07047C046BB
:100730000100002682B001900091019802494058C2
:100740000099084002B070473810000010B584B01E
:10075000069C03900291019200930298019908432C
:1007600000990843069908430349084303998900FF
:10077000244A885004B010BD8100040081B000906C
:10078000009881001F4A8120885001B07047C04600
:1007900010B584B0069C03900291019200930298D8
:1007A00001990843009908430699084381210843A9
:1007B00003998900134A885004B010BD81B000909D
:1007C000009881000F4A0020885001B07047C04651
:1007D00082B0019000910098034908430199890073
:1007E000084A885002B070478000040082B001902F
:1007F000009100988021084301998900014A88509E
:1008000002B070470480424082B00190009101988C
:100810002721C90140580099084002B0704782B0B2
:100820000190009101982721C90140580099084082
:1008300002B0704781B000900099024A0248885087
:1008400001B0704704080000030000B182B00190BD
:100850000091009B0199034A88581843885002B0C0
:100860007047C0469013000082B00190009100983C
:1008700001990C4A885002B07047C04682B001907E
:10088000009100980199074A885002B07047C0460D
:1008900082B00190009100980199024A885002B0FC
:1008A0007047C0469012000082B001900091009BFA
:1008B00001999D20420188581843885002B0704722
:1008C00082B00190009100980199024A885002B0CC
:1008D0007047C046B012000081B001466846017002
:1008E0000178302048430249405801B07047C04663
:1008F00000114040F0B584B001242202344B196845
:1009000003929143196070490D686D04FCD5457ED2
:1009100025409E69A64374199C612024045D03252B
:100920002C40DE69AE433419DC611F4C2568052676
:100930002660466A37681F6276685E6207262E4028
:100940002660C4697F252D02DE69AE436406640C0F
:100950003419DC610768456882680092C6680269DC
:100960000192426902929A69104C14403A07120BA4
:100970002D03ADB2AA183243009D2D072D0D15434E
:10098000019A1543029A1543007E2843084A024003
:10099000101998611868039A104318600868800558
:1009A000FCD504B0F0BDC046001340408D00F0FF00
:1009B00072FF0F00064908680122904308607047E3
:1009C0000349086801221202904308607047C0463C
:1009D00008010B403B4908680122120310430860DC
:1009E0007047C046384800687047C04681B001462D
:1009F0006846017000780249086001B07047C0463F
:100A000008030B4080B582B0014601A8018001882F
:100A10000F2002022B48FFF71AFE02B080BDC0462D
:100A2000F0B5124B1D46083D2E680124A6432E60EA
:100A30000326360330401F68B7433818186018681B
:100A4000FF26B043C9B240181860286820432860C8
:100A500018682107002A06D0084318601A48016860
:100A6000C905FCD5F0BD88431860F0BD10010B40EE
:100A700080B582B0014601A80170017802480322C6
:100A8000FFF7E5FD02B080BD00010B4080B582B0EC
:100A9000014601A8017001780A483022FFF7D7FD0E
:100AA00002B080BD07498860074802689202FCD501
:100AB000012212040B6813430B600168C906FCD5C0
:100AC0007047C04604010B4004020B400949086806
:100AD000052210430860704781B00090054904204A
:100AE00008600098401E044908600449002008601E
:100AF00001B0704710E000E014E000E018E000E012
:100B000081B000900099024A0120885001B07047DE
:100B10000811000082B001900091009B0199C14A28
:100B200088581843885002B07047C04681B0009082
:100B300000990120C202C148885001B07047C046E8
:100B400081B000900098812149014058C0B201B0A5
:100B500070470000F0B5A64A82183B4BC3180879CD
:100B60004E793A4D774C002E23D0202804D005260C
:100B7000F601002803D003E0354E002800D1882676
:100B8000576F2F4037435767976F2F40374397670B
:100B9000566B26405663966B264096630026566534
:100BA00096658F26F6435F6837405F609F683740E1
:100BB0009F608E79096820280BD0002819D1491E22
:100BC0005160D76E2F4088210F43D7661746703784
:100BD00019E0491E5160D16E29401D4F3943D1663D
:100BE000116F29403943116701214907194D1746F3
:100BF00009E049085160D76E2F400521C9010F4314
:100C0000D766174670373C682C400C433C60D16A6D
:100C10004C4C2140D162116B214011630021D16401
:100C200011658F21C943D46F0C40D4671C680C40F8
:100C30001C600643BD2030401168074B0B40C018B4
:100C4000801C1060F0BDC0468418000024493E009E
:100C500001040000FFFFFFCF4000FFCFB0B54A689E
:100C6000364BC250624A80180A78222A58D893001C
:100C700001A4E3589F46C046170D0000210D000057
:100C8000170D0000210D0000210D0000210D0000B6
:100C9000210D0000210D0000210D0000210D00009C
:100CA000210D0000210D0000210D0000210D00008C
:100CB000210D0000210D0000050D0000210D000098
:100CC000050D0000210D0000210D0000210D000088
:100CD000210D0000210D0000210D0000210D00005C
:100CE000210D0000210D0000210D0000210D00004C
:100CF000210D0000210D0000050D0000210D000058
:100D0000050D000003231B0704689C4301235B07B8
:100D1000E318036004E003231B0704689C4304609A
:100D20000B69C360CB68064C1C40C36A054D1D406F
:100D30002B19C362097A11430160B0BD0818000085
:100D4000777702008888FDFF81B000900099524AB1
:100D50005248885001B0704782B0019000910098CD
:100D6000019911221202885002B0704710B5072372
:100D70009B04194092008018024A84589C436118D1
:100D8000815010BD3018000010B5029CA40000195D
:100D900011431943014A815010BDC046501800004C
:100DA00092008018014A81507047C0461018000018
:100DB00010B50122120383180C789C604B78835085
:100DC00089785E4A815010BD81B000900099084A30
:100DD000885801231843885001B0704781B00090B3
:100DE0000099034A885801231843885001B070477E
:100DF0000418000081B00090009911200202885868
:100E000001231843885001B07047000082B0019060
:100E10000091009B0199034A88581843885002B0FA
:100E20007047C0462810000081B000900099012052
:100E3000C2020248885001B07047C0460100002637
:100E4000B0B51122120283580124A34383500B88AA
:100E50008C781C438B882343094C1C408358094DD4
:100E60001D40631983508B79CC791C43097A214347
:100E70007E231940801842689A4351184160B0BDE2
:100E800018670000E798FDFF81B000900099024AC2
:100E90000248885001B0704704080000030000B108
:100EA00080B584B003900291019203980B494018D9
:100EB00002990B4AFFF7CBFB03980A4940180199A6
:100EC0003F22FFF7C4FB0399074A8818895801227B
:100ED0001140FFF7BCFB04B080BDC04610110000FC
:100EE000FFFF0000141100000411000010B50122E2
:100EF000120383180C789C604978815010BD80B52E
:100F000082B00190009101981121090240180099C6
:100F10000322D203FFF79BFB02B080BD80B582B0F5
:100F200001900091019805494018009909020F228B
:100F30001202FFF78CFB02B080BDC0460C1100000E
:100F400081B00090704841690069009908606F485D
:100F5000416900690099486001B0704780B584B06C
:100F60000390029101A802700078002805D0FFE7E5
:100F700003980299FFF78CFC04E003980299FFF7AD
:100F8000A9FBFFE704B080BD80B584B00120FFF766
:100F9000A3FC039003A80078800700287DD5FFE715
:100FA0000020C1435748FFF7C5FB029002A8807894
:100FB0004006800F002849D0FFE702A8807880060D
:100FC00000281BD5FFE7012081054E48FFF71CFCD8
:100FD000002809D1FFE74C4948680A680023521CE1
:100FE00058410A60486008E0474948680A68002399
:100FF000521E98410A604860FFE721E002A880780D
:10100000400600281BD5FFE7012041053D48FFF7BA
:10101000FBFB002809D1FFE73B4948680A68002329
:10102000521E98410A60486008E0374948680A68DB
:101030000023521C58410A604860FFE7FFE7FFE7C2
:10104000032041052F48FFF723FBFFE702A8407864
:101050008006002820D5FFE70120C1075648FFF78A
:10106000D3FB002809D0FFE7284948680A68002315
:10107000521C58410A60486008E0244948680A68E0
:101080000023521E98410A604860FFE70120410397
:101090001C48FFF7FDFAFFE7FFE703A80078C00749
:1010A00000282DD0FFE70120C1074348FFF742FB8E
:1010B000019001A8C0780006002820D5FFE7012094
:1010C00041031048FFF7A0FB002809D0FFE70F49B4
:1010D00048680A680023521E98410A60486008E088
:1010E0000A4948680A680023521C58410A6048604F
:1010F000FFE70120C1073048FFF7CAFAFFE7FFE723
:1011000004B080BD00200A40B0042020C804202084
:1011100080B584B00120009081070191264802909B
:10112000FFF7ACFB00990298C9030391FFF7A6FBF8
:1011300000F044F801990298FFF7C2FA00F03EF877
:1011400002980399FFF7BCFA00F038F804B080BDAC
:1011500080B584B001200190810703911648029068
:10116000FFF7AEFA01990298C903FFF787FB00F079
:1011700025F802980399FFF781FB04B080BDC046B3
:1011800080B584B00120019081070B480290FFF7E1
:1011900075FB00F013F801990298C9030391FFF75A
:1011A0006DFB00F00BF802980399FFF789FA00F045
:1011B00005F804B080BDC04600000A4080B5032099
:1011C00001F0CAFD80BD000080B51548FFF7FCFDA9
:1011D00080BDC04680B584B003AA108002A801700B
:1011E000007800280DD0FFE70D4801900021032270
:1011F000FFF7D6FD019803A909880222FFF7D0FD69
:101200000CE003A80188064800900322FFF7C8FD00
:10121000009800210222FFF7C3FDFFE704B080BD64
:101220000000864080B5FE4801F006FAFFF7DEF9BF
:10123000FC480078012813D1FFE7FD480078012819
:101240000ED1FFE7FB480078002809D1FFE7FA48F4
:101250000078002804D1FFE7F84900200870AFE2C9
:10126000F4480078012805D0FFE7F5480078012808
:1012700022D1FFE7EB480078012805D0FFE7EC48D2
:101280000078012818D1FFE7EC48EC2101700078C4
:1012900040B2FFF761F9FFF737F80146E94801600E
:1012A000008802B21320C043002100F0B1FA4B20A5
:1012B000800001F03FFD95E2E3480078012805D069
:1012C000FFE7DD480078012822D1FFE7D548007804
:1012D000012805D0FFE7D6480078012818D1FFE79C
:1012E000D64814210170007840B2FFF735F9FFF7B6
:1012F0000BF80146D3480160008802B21320C043B6
:10130000002100F085FA4B20800001F013FD69E216
:10131000C4480078012809D1FFE7C54800780028B3
:1013200004D1FFE7C549FF20087046E2BD480078B8
:10133000002809D1FFE7BE480078012804D1FFE763
:10134000BE490120087037E2BA480078002827D14A
:10135000FFE7BB480078002822D1FFE7BB480078B0
:1013600000281DD1FFE7AF480078012818D1FFE71A
:10137000AF480078002813D1FFE7B548007800286F
:101380000ED1FFE7B0480078002809D1FFE7AA484E
:101390000078002804D1FFE7A849FF2008700AE27E
:1013A000A4480078002827D1FFE7A5480078002846
:1013B00022D1FFE7A548007801281DD1FFE7994811
:1013C0000078012818D1FFE799480078002813D148
:1013D000FFE79F48007800280ED1FFE79A48007881
:1013E000002809D1FFE794480078002804D1FFE7DE
:1013F0009249FE200870DDE1FD480078002827D1E1
:10140000FFE7FD480078002822D1FFE7FC4800787C
:1014100001281DD1FFE7F4480078002818D1FFE724
:10142000F2480078002813D1FFE7F648007800283A
:101430000ED1FFE7F1480078002809D1FFE7ED4819
:101440000078002804D1FFE7EF49FC200870B0E1E4
:10145000E7480078002827D1FFE7E748007801280F
:1014600022D1FFE7E648007800281DD1FFE7DE48DB
:101470000078002818D1FFE7DC480078002813D155
:10148000FFE7E048007800280ED1FFE7DB4800784E
:10149000002809D1FFE7D7480078002804D1FFE7EA
:1014A000D949FA20087083E1D1480078012837D162
:1014B000FFE7D1480078002832D1FFE7D048007814
:1014C00000282DD1FFE7C8480078002828D1FFE781
:1014D000C6480078002823D1FFE7CA4800780028D2
:1014E0001ED1FFE7C5480078002819D1FFE7C148A1
:1014F0000078002814D1FFE7C348F4210170007878
:1015000040B2FFF729F8FEF7FFFE0146BF48016031
:10151000008802B22320C000002100F079F946E1E2
:10152000B3480078002827D1FFE7B34800780028A7
:1015300022D1FFE7B248007800281DD1FFE7AA4872
:101540000078002818D1FFE7A8480078012813D1B7
:10155000FFE7AC48007801280ED1FFE7A7480078E4
:10156000002809D1FFE7A3480078002804D1FFE74D
:10157000A5490320087019E19D480078002827D16B
:10158000FFE79D480078002822D1FFE79C480078BB
:1015900000281DD1FFE794480078002818D1FFE704
:1015A00092480078002813D1FFE796480078012878
:1015B0000ED1FFE791480078002809D1FFE78D4858
:1015C0000078002804D1FFE78F4905200870ECE07F
:1015D0008748007800283DD1FFE787480078002839
:1015E00038D1FFE786480078002833D1FFE77E48EE
:1015F000007800282ED1FFE77C480078002829D108
:10160000FFE780480078012824D1FFE77B48007875
:1016100001281FD1FFE77748007800281AD103E09E
:101620002400202070022020774908200870BBE0A9
:10163000710220206D022020740220202C00202026
:101640006E02202044052020730220206F022020FB
:101650007202202066480078002837D1FFE76648EC
:101660000078002832D1FFE76548007800282DD1A6
:10167000FFE75D480078002828D1FFE75B48007845
:10168000002823D1FFE75F48007800281ED1FFE73C
:101690005A480078002819D1FFE7564800780128F9
:1016A00014D1FFE758480C210170007840B2FEF7D2
:1016B00053FFFEF729FE014654480160008802B23C
:1016C0002320C000002100F0A3F86CE04848007817
:1016D000012830D1FFE74848007801282BD1FFE7E7
:1016E0004748007801280AD0FFE73F4800780128E2
:1016F00005D0FFE73D48007801281CD1FFE73D48B1
:101700000078002817D1FFE73F48F12101700078E9
:1017100040B2FEF721FFFEF7F7FD01463B480160AE
:10172000008802B21320C043002100F071F8FA20B3
:1017300001F000FB56E031480078012831D1FFE785
:101740002C48007801282CD1FFE72E48007801288A
:101750000AD0FFE724480078012805D0FFE7234896
:10176000007801281DD1FFE721480078002818D112
:10177000FFE725480F210170007840B2FEF7ECFE2C
:10178000FEF7C2FD014621480160008802B2132025
:10179000C043002100F03CF84B20800001F0CAFA61
:1017A00020E0FFE7FFE7FFE7FFE7FFE7FFE7FFE7EF
:1017B000FFE7FFE7FFE7FFE7FFE7FFE7FFE7FFE7F9
:1017C0001148007840B2FEF7C7FEFEF79DFD0146C6
:1017D0000E480160008802B2AF204000002100F0F6
:1017E00017F8FFE780BDC04670022020710220205C
:1017F0006D022020740220206E022020730220201F
:101800006F022020720220202C002020440520207E
:1018100080B58AB009AB0593188008A8018007A895
:101820000490028000F092F80146059806913E4A25
:1018300000211160008800B2FEF746FD01460498C1
:101840003A4A1160008800B2FEF73EFD3849FEF7C3
:10185000E1FC0699FEF7A1FC01460598354A1160A6
:10186000008800B2002811D1FFE708A8008800B264
:1018700000280BD1FFE707A8008800B2002805D197
:10188000FFE70021084600F049F94BE027480290A5
:101890000068284901910968FEF726FCFEF734FD2F
:1018A000019902460298244B03931A600068096864
:1018B000FEF76BFCFEF728FD014603981F4A1160F6
:1018C00000681F49884205DBFFE71B497D20C000F7
:1018D0000860FFE7184800681A49884204DCFFE7FF
:1018E000154919480860FFE7144800681449884200
:1018F00005DBFFE711497D20C0000860FFE70F48C6
:1019000000681049884204DCFFE70C490E48086073
:10191000FFE70948008800B20849098809B200F0C9
:10192000FDF8FFE70AB080BD5405202050052020B7
:1019300000007A4458052020480520204C0520202E
:10194000E903000017FCFFFF18FCFFFF0048704789
:101950000A171D43004870476A7C5243004870478D
:1019600000409244B0B582B01048FFF7E9FA01A9EF
:1019700000200870FFE701A80078012814DCFFE7C9
:1019800001AA107885000948435909494C591B1B85
:10199000434C63511278920080588850FFE70198B9
:1019A000401C01A90870E6E702B0B0BDE0032020AA
:1019B000D803202080B58AB00990002002900890BA
:1019C00007900690FFF7C6FF0590FFF7C7FF04904A
:1019D000FFF7BCFF0390FFF7C5FF02980890FFE7F1
:1019E0000898012817DCFFE70898810001912C482E
:1019F000415832204843FEF767FC0599FEF7CDFBBE
:101A00000499FEF707FC019A06A98850FFE7089899
:101A1000401C0890E4E706980799FEF765FB012152
:101A200089070091FEF7F6FBFEF76EFC0999088026
:101A300006990798FEF7A9FB0099FEF7EBFBFEF766
:101A400063FC0999488006980799FEF79EFB009968
:101A5000FEF7E0FB0399FEF7DDFB1049FEF79DFB67
:101A6000FEF752FC0999888044480078002813D07A
:101A7000FFE700200890FFE7089801280BDCFFE74C
:101A80000898820006A880583D498850FFE70898CA
:101A9000401C0890F0E7FFE70AB080BD00007AC460
:101AA000E803202080B582B01A48FFF783FF33484F
:101AB000007800282BD0FFE731481021405E002835
:101AC00006D1FFE72E490020886013498860FFE7B0
:101AD0002B481221405E002806D1FFE7284900204C
:101AE000C8600D490863FFE72548009000F0A6FB99
:101AF00000988068FEF708FC014600980191C068D4
:101B0000FEF702FC0146019800F004FDFFE702B079
:101B100080BDC04676022020F404202080B584B029
:101B200003AA108002A801801449012008700398BC
:101B3000134908820298488201A900200870FFE733
:101B400001A80078012816DCFFE701A800780090C2
:101B500041000B4840181021405EFEF7C1FBFEF724
:101B6000ECFB0146009800F0A7FCFFE70198401C41
:101B700001A90870E4E704B080BDC046F00320204E
:101B8000E004202082B0014668460180008800B24F
:101B9000012805DBFFE700984B3001A908800EE023
:101BA0006846008800B2002805D5FFE700984B384A
:101BB00001A9088003E001A900200880FFE701A82F
:101BC000008800B202B0704780B582B001A9002041
:101BD0000870FFE701A8007803281EDCFFE76946CC
:101BE00000200870FFE7684600787F280FDCFFE7D9
:101BF0006846007881009848411801A802780020C2
:101C00008854FFE70098401C69460870EBE7FFE73F
:101C10000198401C01A90870DCE700F0D1F802B07F
:101C200080BDC04687B000910146009806AB197090
:101C300005A9087004A802700A78D20803AB1A70CC
:101C40000A7807210A4002A90A700A780121914006
:101C500001AA1170007800280CD0FFE7019B06A8AC
:101C6000007881007C48411803A80278885C1843FA
:101C700088540BE0019B06A8007881007648411843
:101C800003A80278885C98438854FFE707B0704740
:101C900080B586B0C820059001F04CF8AE20002138
:101CA000039100F0A3FA0399084600F09FFA039904
:101CB0001020049000F09AFA0399084600F096FA72
:101CC0000399B02000F092FA0399812000F08EFA77
:101CD0000399FF2000F08AFA0399A12000F086FA08
:101CE0000399A62000F082FA0399A82000F07EFA5A
:101CF00003991F20029000F079FA0399059800F0EB
:101D000075FA0399D32000F071FA0399084600F0A0
:101D10006DFA0399D52000F069FA0399802000F04C
:101D200065FA0399D92000F061FA0298039900F04E
:101D30005DFA0399DA2000F059FA0399084600F099
:101D400055FA0399DB2000F051FA0399402000F086
:101D50004DFA03998D2000F049FA0399142000F000
:101D600045FA0399AF2000F041FA049B012000904E
:101D7000064A0A20282100F0ECF900F021F8059825
:101D800000F0D8FFFFF720FF06B080BDCC4900006F
:101D900083B002AA107001A8017001200090FFE733
:101DA00001AA1078411E1170002806D0FFE702A892
:101DB0000078009948430090F2E7009803B070471C
:101DC00080B584B003A900200870FFE703A800785D
:101DD00003283EDCFFE70398B030C0B20021019138
:101DE00000F004FA0199084600F000FA0199102069
:101DF00000F0FCF9FFF78CF9782000F085FEFFF782
:101E0000BFF9402000F080FEFFF7BAF9019802A95F
:101E10000870FFE702A800787F2812DCFFE702A81D
:101E2000007881000C48401803A90978405C00F054
:101E30006BFEFFF7A5F9FFE70298401C02A90870A6
:101E4000E8E7FFF785F9FFE70398401C03A908704E
:101E5000BCE704B080BDC0462D00202080B584B012
:101E600000200390FFE70398072813DCFFE7039A9D
:101E70000A205043143009498A5C01230193082148
:101E80000091C0B2192100F0F3F8FFE70398401C5D
:101E90000390E8E7FFF794FF04B080BD2400202002
:101EA000B0B590B003910446039814990FAD2C700F
:101EB0000EAC20700DA802700CA803700BAA117054
:101EC0000F9905AA11700E9904AA117000780828BC
:101ED00004D1FFE707A90620087012E00CA80178DA
:101EE0000091C80801904907401C0029029001D1C7
:101EF00001980290009802994008484307A9087089
:101F0000FFE70D98203806A908700AA9002008707C
:101F1000FFE70AA8007807A90978884200DB9CE05F
:101F20000CA8007808280CD1FFE706A80078062145
:101F300041434E4840180AA90978405C08A9087036
:101F400035E00CA800780C280CD1FFE706A8007833
:101F50000C214143444840180AA90978405C08A96B
:101F6000087023E00CA8007810280BD1FFE706A822
:101F7000007801013B4840180AA90978405C08A98B
:101F8000087012E00CA8007818280CD1FFE706A80A
:101F9000007824214143324840180AA90978405C5E
:101FA00008A9087000E058E0FFE7FFE7FFE709A98C
:101FB00000200870FFE709A80078072828DCFFE761
:101FC00008A80078C007002809D0FFE70FA800780C
:101FD0000EA909780BAA1278FFF724FE0AE00FA8D1
:101FE00000780EA909780BAA127853425A41FFF7DC
:101FF00019FEFFE708A90878400808700E98401CF1
:102000000EA90870FFE70998401C09A90870D2E7DB
:102010000F98401C0FA908700CA80078082813D04E
:10202000FFE70FA8007805A90978401A0CA90978DC
:102030004908884208D1FFE705980FA9087004985D
:10204000083004A90870FFE704980EA90870FFE79C
:102050000A98401C0AA908705BE710B0B0BDC046E2
:10206000FA3B00000A360000963100006E2F000097
:1020700070B58EB004920C46054604981399129AD6
:102080000DAE35700CAD2C700B900AA8037009A82A
:10209000027008AA117005AA0021117000780828A2
:1020A00004D1FFE705A902200870FFE707A9002077
:1020B0000870FFE707A800780AA90978884246DA7D
:1020C000FFE70B9802900A990798C0434018C1B2E5
:1020D0000A200390FFF75CFE01460298FEF749F9DB
:1020E0000399FEF746F906A801700078002813D17D
:1020F000FFE70D9809A90B785908059A8A180799DE
:10210000514340180CA9097808AA12780092C0B26D
:102110003022FFF7C5FE14E00D9809A90B78590885
:10212000059A8A180799514340180CA90978069A0C
:10213000303208AC24780094C0B2D2B2FFF7B0FEBF
:10214000FFE7FFE70798401C07A90870B2E70EB049
:1021500070BDB0B58AB004460E9809AD2C7008ACBD
:102160002170079206A90B7005A90870FFE7079870
:1021700001780020202904900DDBFFE70798017803
:102180000120002202927F29039001DB0298039034
:1021900003980490FFE70498C007002824D0FFE7C5
:1021A00009A8007808A90978079A127806AB019364
:1021B0001B7805AC24780094FFF772FE0198007834
:1021C000082805D1FFE70998801D09A9087007E0D4
:1021D00006A8007841080998401809A90870FFE787
:1021E0000798401C0790C2E70AB0B0BD80B584B024
:1021F00003AA107002A801900170FEF789FF7820F1
:1022000000F082FCFEF7BCFF01980078002804D0A3
:10221000FFE7402000F078FC03E0002000F074FCB1
:10222000FFE7FEF7ADFF03A8007800F06DFCFEF7B6
:10223000A7FFFEF78DFF04B080BD000080B582B01F
:10224000019000200090FFE70098012814DCFFE7D0
:10225000009A28215143AE484018019992008958AC
:1022600000F00CF80199009A920089188860FFE745
:102270000098401C0090E7E702B080BD80B58AB0AE
:10228000099008910998009000680899FDF77DFF72
:102290000099886109990791C8680190886904903C
:1022A000096A0391FDF771FF01460198FDF775FF7B
:1022B00004990246079802920069FDF76EFF0146F5
:1022C0000298FDF711FF03990246079806924069AC
:1022D00005900846FDF708FF01460498FDF755FFF5
:1022E0000799C969FDF700FF01460598FDF755FFFD
:1022F00001460698FDF7F8FE014607988068FDF74D
:10230000F3FE079988600999086AC8610999886984
:102310000862099880680D49FDF7BAFF002804D1CA
:10232000FFE7099909488860FFE70998806808492C
:10233000FDF7BCFF002804D1FFE709990448886035
:10234000FFE7099880680AB080BDC0460040674436
:10235000004067C410B586B000200590FFE70598DF
:10236000012839DCFFE70598282103910B464343F8
:10237000674804900022C250059C0B466343C31873
:102380009A60059C0B466343C3189A61059C0B46F3
:102390006343C318DA61059C0B466343C3181A6292
:1023A000059C0B466343C3185A62059B0A465A4371
:1023B00083181A4ADA60059B0A465A438318184A5A
:1023C0001A61059A514341183F2000064861FFE712
:1023D0000598401C0590C2E7FF208105009100226E
:1023E00002920A4B0193104600F01CF80099019BE1
:1023F000029A012000F016F802980549054A4A6041
:1024000088600548C86006B010BDC0460AD7233CA6
:1024100000002020CDCCCC3ECDCCCC3DCDCC4C3F13
:102420008FC2753DB0B585B0044604A80470039111
:10243000029201930078032801DBFFE739E004A84A
:102440000078022820D1FFE700200090FFE70098E5
:10245000012818DCFFE703980099282213464B4314
:102460002B49CB18D8600298009C13466343CB18C5
:1024700018610198009B5A4389184861FFE700984A
:10248000401C0090E3E714E0039804AB197828227D
:1024900014464C431E490C19E06002981D781446FE
:1024A0006C430C19206101981B785A4389184861C4
:1024B000FFE705B0B0BDC04683B0024602A8027077
:1024C00001910078032801DBFFE71FE002A80078F4
:1024D000022813D1FFE700200090FFE700980128B1
:1024E0000BDCFFE70198009928224A4308498850ED
:1024F000FFE70098401C0090F0E707E0019802A970
:10250000097828224A4302498850FFE703B0704700
:10251000F404202010B58CB002460BA802800AAA51
:1025200005921180008800B27D21CA0004922C49D6
:10253000039100F0BBFC0399049A0346059809AC8B
:1025400007942380008800B200F0B0FC0146079891
:1025500008AA06921180008800B2FFF713FB079AC1
:10256000014606981180008800B2FFF70BFB069A1F
:10257000014607981180008800B200280ED5FFE7B9
:1025800009A80290008800B200F080FC0146029881
:10259000018000880121FEF71DFE05E009A80088E2
:1025A0000021FEF717FEFFE708A8008800B2002808
:1025B0000ED5FFE708A80190008800B200F066FC85
:1025C0000146019801800088012100F00BF805E028
:1025D00008A80088002100F005F8FFE70CB010BD46
:1025E00018FCFFFF80B586B005AA108004A8017012
:1025F000007800280DD0FFE70E4803900022114616
:10260000FEF7CEFB039805A909880122FEF7C8FB57
:102610000DE005A801880748019000220292FEF70C
:10262000BFFB019802990122FEF7BAFBFFE706B053
:1026300080BDC0460000864080B588B0079000206D
:102640000690FFE70698072838DCFFE70698400762
:10265000C00F05A9087006988007C00F04A908706C
:1026600006980121084003A90870FFE703A8027833
:10267000EF48029001210191FEF770FC0199029848
:1026800004AA1278C906FEF769FC0199029805AA06
:1026900012788906FEF762FCFFE7012000F04AFB92
:1026A000E3480221FEF7BBF8411E88410799069ACC
:1026B0008854FFE70698401C0690C3E708B080BD29
:1026C00080B58EB00920FEF779F80A20FEF776F87B
:1026D000182004210391FEF789F801200A900102D5
:1026E000D3480C90FEF70EF81C2005210B91FEF745
:1026F0007DF80A990C980903FEF704F80B99072056
:10270000FEF774F8C94807900821FDF7FBFF0B9905
:102710000E20FEF76BF803990C98FDF7F3FF1420D9
:1027200002210291FEF762F802991520FEF750F897
:102730000A98002304930093020426201946FEF70A
:1027400027F81120FEF71AF82420FEF717F803984F
:10275000FEF714F8049A0A980092C30405933020F7
:102760001146FDF7F3FF049A059B009231201146B4
:10277000FDF7ECFF049A059B00921D201146FDF722
:10278000E5FF049A059B0B9800921146FDF7DEFFCA
:102790003820FDF7F3FF3920FDF7F0FF0B20FDF7A0
:1027A000EDFF0499059B0A980091420406920C20C3
:1027B000FDF7CCFF06990798FDF778FF07981A49AF
:1027C000FEF752F807981949FDF79CFF07980A99F8
:1027D0008907FEF769F807980A99C9070891FDF774
:1027E0004BFF07980899FDF77FFF0C981049099156
:1027F000FDF75CFF09990C98FDF784FF0A990C9886
:102800008906FEF723F80B990C988902FEF74CF81D
:102810000C9808490D91FDF72FFF0C980D99FDF7C5
:1028200063FF0EB080BDC0460080004000800240C3
:102830002100000C0020600080B5FFE7FEF7D2F811
:1028400003490840884201D0FFE7F7E780BDC04652
:10285000000B200080B582B000200190FEF7C6F882
:10286000012000904002FEF7CDF80198FEF700F934
:10287000FEF7A0F8FEF7A4F8009A032000036421F5
:10288000FEF7CEF80848FEF735F81020FEF7FEF800
:10289000FEF7A0F80198FEF705F90098019900F0FD
:1028A00005FA02B080BDC0465849000080B55020EE
:1028B000FEF712F9FEF70AF980BD000080B582B07C
:1028C0000B49CF480190FEF773FA01980949FEF7CA
:1028D000C5F9019801210091FEF71CF9009911201A
:1028E00000F0E4F90198FEF70BF902B080BDC04694
:1028F000804900008449000080B582B00A49A6489A
:102900000190FEF755FA01980849FEF7A7F90198DA
:102910000121FEF7FFF81320022100F0C7F901980A
:10292000FEF7EEF802B080BD984900009C49000017
:1029300080B582B00F493F480190FEF7D7FA019861
:102940000D49FEF77DFA01980021FEF7D8FA0198AB
:1029500005211B22FEF7A4FA01980849FEF756FA52
:1029600001980F21FEF7DAFA0198FEF743FA02B058
:1029700080BDC046B0490000B2490000010400001B
:1029800080B500F021F8FFF79BFEFFF763FF00F032
:1029900053F8FFF793FFFFF7AFFFFFF7C9FFFFF70C
:1029A00085FFFFF749FF0549B822002088540449F4
:1029B0009C23C8540349885480BDC046F40320209A
:1029C0007C0220201C03202080B586B08448009023
:1029D000FDF730FF16480190FDF72CFF48480290A4
:1029E000FEF7B2F986480390FEF7AEF96A48049004
:1029F000FEF7AAF90F480590FEF746FA0098FDF792
:102A00008DFE0198FDF78AFE0298FEF78FF8039875
:102A1000FEF78CF80498FEF789F80598FEF704FA9B
:102A20001020FDF70FFE06B080BDC04600000A4032
:102A300000200A400080104080B588B02F493048FF
:102A40000790FEF7B5F907982E49FEF783F8079827
:102A500000230493009319461A46FEF795F9049A49
:102A600007981146FEF782F9049A07987D21C9005C
:102A70000591FEF795F9049B0798012102910091B9
:102A800019461A46FEF780F9029A04990798FEF74C
:102A90006DF9029A05990798FEF782F9049B079849
:102AA00002210391009119461A46FEF76DF9039A27
:102AB00004990798FEF75AF9039A05990798FEF7C3
:102AC0006FF9049B079803210691009119461A4655
:102AD000FEF75AF90499069A0798FEF747F90599FF
:102AE000069A0798FEF75CF90798FEF709F8079829
:102AF0000F21FEF731F908B080BDC046BC49000087
:102B000000008640C049000080B584B003A9087069
:102B100002A900200870FFE702A8007807282BDC34
:102B2000FFE703A800780006002806D5FFE701208C
:102B300081072B48FDF7A2FE05E001208107284808
:102B4000FDF7BEFDFFE7FEF739FB0120C103019150
:102B500023480090FDF792FEFEF730FB00980199A4
:102B6000FDF7AEFD0398400003A90870FFE7029847
:102B7000401C02A90870CFE704B080BD80B50648AC
:102B8000FDF7DEFF012806D1FFE70448FFF754FDFB
:102B9000FFF764F9FFE780BD002086402400202075
:102BA00080B51748FDF7CCFF012816D1FFE700F0EC
:102BB00023F9FEF777FF09480178491C0170007876
:102BC0000A2809DBFFE705490020087001204104BD
:102BD0000348FDF775FEFFE7FFE780BDF103202006
:102BE00000000A4080B582B01120019000F01EF86C
:102BF000019800F045F80248FEF7F0F802B080BDF9
:102C00000080864081B0014668460170007840B27D
:102C1000002809D4FFE7684601781F200140012001
:102C200088400C490860FFE701B0704781B0014659
:102C300068460170007840B2002809D4FFE7684672
:102C400001781F2001400120884002490860FFE709
:102C500001B0704780E200E081B001466846017033
:102C6000007840B2002809D4FFE7684601781F20A9
:102C70000140012088400C490860FFE701B070471F
:102C800081B0014668460170007840B2002809D43E
:102C9000FFE7684601781F20014001208840024973
:102CA0000860FFE701B0704700E100E070B582B056
:102CB000024601A802700091007840B2002817D4A3
:102CC000FFE701A9087840B20322D3431840184A0D
:102CD0008058097849B28C07E50EFF24AC40A04328
:102CE000009CA401E4B2AC402043194088501AE093
:102CF00001A908780F24204008380322D343184044
:102D00000A4A8058097849B28D07EE0EFF25B54072
:102D1000A843009DAD01EDB2B540284321400839DC
:102D200019408850FFE702B070BDC0461CED00E0BE
:102D300000E400E080B582B00190FFE70198411EF9
:102D40000191002805D0FFE77D20C00000F004F8C5
:102D5000F4E702B080BD000085B004900020009030
:102D60000499502048430390174800680290FFE7F9
:102D700015480068019001980299884220D0FFE729
:102D800001980299884207D2FFE702980199411AF7
:102D90000098401800900AE00C4800680199401A19
:102DA0000299401800994018401C0090FFE70198D4
:102DB000029000980399884201D3FFE701E0FFE702
:102DC000D6E705B07047C04618E000E014E000E028
:102DD00080B582B001200190FFF714FF0198FFF742
:102DE00011FF0198FFF738FF0198FFF735FFFFF754
:102DF000F9FE02B080BD0000B0B5124A50681068FC
:102E0000906011494868086888605468156850697E
:102E100013695B196041136150614C680D68486922
:102E20000B695B1960410B6148619068C00F1073BA
:102E30008868C00F08730020506010604860086008
:102E4000B0BDC046B0042020C804202080B584B0A6
:102E5000002002900390FFF793FDFEF719FFFEF7A5
:102E6000B3F9FFF7B5FFFFF775FA0298012100915A
:102E7000054A19210823FFF76CF9FFE7FEF7D2F99D
:102E8000FEF7ECFFFAE7C046C849000082B00090A8
:102E90000098002804D5FFE700984042019002E026
:102EA00000980190FFE7019802B0704784B0034694
:102EB00002A8038001AB198069460A80008800B22D
:102EC000002804D1FFE703A9002008801FE002A822
:102ED000008800B201A9098809B2884204DAFFE734
:102EE000019803A9088012E002A8008800B2694690
:102EF000098809B2884204DDFFE7009803A9088029
:102F000005E0FFE7FFE7029803A90880FFE703A8B1
:102F1000008800B204B070472021020C01D01021BB
:102F20001046020A01D010460839020901D01046A5
:102F3000091F820801D01046891E420801D0881E50
:102F40007047081A7047000002E008C8121F08C145
:102F5000002AFAD17047000070470000000000000E
:102F6000002001E001C1121F002AFBD170470000C0
:102F7000000000000000002F000000000700070014
:102F800000147F147F1400242A7F2A120062640830
:102F900013230036495522500000050300000000AD
:102FA0001C224100000041221C000014083E0814AD
:102FB0000008083E0808000000A06000000808089B
:102FC0000808000060600000002010080402003EB5
:102FD0005149453E0000427F400000426151494650
:102FE000002141454B31001814127F100027454540
:102FF0004539003C4A494930000171090503003652
:103000004949493600064949291E00003636000064
:103010000000563600000008142241000014141469
:103020001414000041221408000201510906003264
:103030004959513E007C1211127C007F49494936A2
:10304000003E41414122007F4141221C007F49490D
:103050004941007F09090901003E4149497A007F41
:103060000808087F0000417F4100002040413F01E7
:10307000007F08142241007F40404040007F020C46
:10308000027F007F0408107F003E4141413E007FE7
:1030900009090906003E4151215E007F09192946B0
:1030A0000046494949310001017F0101003F40408C
:1030B000403F001F2040201F003F4038403F00633A
:1030C000140814630007087008070061514945435C
:1030D00000007F41410000552A552A55000041411A
:1030E0007F00000402010204004040404040000014
:1030F00001020400002054545478007F48444438AE
:1031000000384444442000384444487F0038545434
:10311000541800087E0901020018A4A4A47C007FB2
:10312000080404780000447D4000004080847D0055
:10313000007F102844000000417F4000007C0418FC
:103140000478007C0804047800384444443800FCC7
:10315000242424180018242418FC007C08040408E3
:1031600000485454542000043F444020003C404058
:10317000207C001C2040201C003C4030403C00448F
:1031800028102844001CA0A0A07C004464544C4497
:1031900014141414141400000000000000000000B7
:1031A00000000000FC000000000002000000000C15
:1031B000020C020000000000000090D0BCD0BC90C7
:1031C0000003000300001824FE448C0003020702E1
:1031D00001001824D8B04C80000300010201C0385F
:1031E000E438E000010202010202080600000000CB
:1031F000000000000000000000F8040200000001D0
:103200000204000204F800000004020100009060C3
:10321000F86090000000010000002020FC20200049
:10322000000001000000000000000000080600008F
:1032300000002020202020000000000000000000EE
:10324000000000000002000000000080601C02007E
:10325000040300000000F8040404F8000102020264
:1032600001000008FC0000000002030200001884B6
:103270004424180003020202020008042424D80097
:1032800001020202010040B088FC8000000000033F
:1032900002003C242424C400010202020100F8249C
:1032A000242CC0000102020201000C04E41C0400F2
:1032B000000003000000D8242424D80001020202E8
:1032C000010038444444F8000003020201000000F9
:1032D00010000000000002000000000020000000BC
:1032E00000000600000000205088040200000000DA
:1032F00001029090909090000000000000000002F9
:10330000048850200002010000001804C4241800A2
:10331000000002000000F804E494F8000102020238
:10332000020000E09CF0800002030000030204FCA5
:103330002424D800020302020100F80404040C0053
:1033400001020202010004FC0404F800020302026C
:10335000010004FC24740C0002030202030004FCBC
:1033600024740C00020302000000F0080444CC4066
:1033700000010202010004FC2020FC040203000002
:1033800003020404FC04040002020302020000041D
:1033900004FC040406040403000004FC24D00C0410
:1033A00002030200030204FC040000000203020204
:1033B0000203FC3CC03CFC0003000300030004FCCF
:1033C00030C4FC04020302000300F8040404F80003
:1033D00001020202010004FC24241800020302007E
:1033E0000000F8848404F80001020207050004FCD0
:1033F00024649800020302000302182424448C0071
:103400000302020201000C04FC040C00000203028F
:10341000000004FC0000FC04000102020100047C26
:1034200080E01C040000030000001CE03CE01C00E5
:10343000000300030000049C609C040002030003DE
:103440000200041CE01C04000002030200000C84C3
:10345000641C04000203020203000000FE020200DA
:10346000000007040400000E30C00000000000014E
:103470000200000202FE0000000404070000000435
:103480000204000000000000000000000000000036
:1034900008080808080800000200000000000000FA
:1034A00000000040A0A0C00000010202030204FCD2
:1034B0002020C00000030202010000C020206000A4
:1034C00000010202020000C02024FC0000010202F0
:1034D000030200C0A0A0C000000102020200002000
:1034E000F82424040002030202000040A0A060208F
:1034F00000070A0A0A0404FC2020C000020302009C
:1035000003020020E40000000002030200000000AB
:1035100020E4000008080807000004FC80E02020E8
:103520000203020003020404FC0000000202030282
:103530000200E020E020C00003000300030020E0C0
:103540002020C00002030200030200C02020C000AF
:1035500000010202010020E02020C000080F0A0242
:10356000010000C02020E0000001020A0F0820E056
:10357000402020000203020000000060A0A0200004
:103580000002020203000020F820000000000102F7
:10359000020020E00020E00000010202030220E01F
:1035A000208060200000030100006080E080600057
:1035B000000300030000206080602000020300037D
:1035C000020020E0208060200808070100000020A1
:1035D000A0602000000203020200000020DE0200C2
:1035E000000000070400000000FF00000000000FC2
:1035F00000000002DE2000000004070000000201BD
:1036000002040402000000000000000000000000AE
:1036100000000000000000000000000000F80000B2
:103620000000000000333000000000100C06100CF9
:103630000600000000000000000040C07840C07894
:103640004000043F04043F040400007088FC08307C
:103650000000001820FF211E0000F008F000E01814
:10366000000000211C031E211E0000F008887000CD
:1036700000001E2123241927211010160E0000001F
:1036800000000000000000000000000000E018043E
:103690000200000000071820400000020418E000AB
:1036A00000000040201807000000404080F08040EB
:1036B00040000202010F01020200000000F00000C1
:1036C00000000101011F01010100000000000000D5
:1036D000000080B07000000000000000000000004A
:1036E00000000001010101010101000000000000D3
:1036F000000000303000000000000000000080608A
:103700001804006018060100000000E0100808100E
:10371000E000000F102020100F00001010F8000033
:1037200000000020203F20200000007008080888CA
:10373000700000302824222130000030088888489A
:1037400030000018202020110E000000C02010F8CA
:10375000000000070424243F240000F8088888089B
:1037600008000019212020110E0000E010888818A0
:103770000000000F112020110E0000380808C83882
:1037800008000000003F0000000000708808088862
:103790007000001C222121221C0000E010080810EB
:1037A000E0000000312222110F00000000C0C00024
:1037B0000000000000303000000000000080000029
:1037C0000000000080600000000000008040201029
:1037D0000800000102040810200040404040404022
:1037E0004000040404040404040000081020408085
:1037F00000000020100804020100007048080808BA
:10380000F0000000003036010000C030C828E81089
:10381000E0000718272423140B000000C038E00044
:103820000000203C23020227382008F8888888708E
:103830000000203F202020110E00C030080808089A
:103840003800071820202010080008F80808081081
:10385000E000203F202020100F0008F88888E808AA
:103860001000203F20202320180008F88888E8084E
:103870001000203F200003000000C0300808083876
:10388000000007182020221E020008F80800000887
:10389000F808203F210101213F20000808F808080E
:1038A00000000020203F2020000000000808F80849
:1038B0000800C08080807F00000008F888C02818B9
:1038C0000800203F20012638200008F808000000EA
:1038D0000000203F20202020300008F8F800F8F8F1
:1038E0000800203F003F003F200008F830C00008DB
:1038F000F808203F200007183F00E01008080810D3
:10390000E0000F10202020100F0008F80808080819
:10391000F000203F210101010000E010080808101C
:10392000E0000F18242438504F0008F88888888851
:103930007000203F2000030C302000708808080829
:1039400038000038202121221C00180808F8080837
:1039500018000000203F2000000008F808000008C0
:10396000F808001F202020201F000878880000C8C9
:103970003808000007380E010000F80800F80008B9
:10398000F800033C0700073C0300081868808068C3
:10399000180820302C03032C30200838C800C83801
:1039A00008000000203F2000000010080808C83868
:1039B00008002038262120201800000000FE020206
:1039C00002000000007F40404000000C30C00000BA
:1039D0000000000000010638C00000020202FE00E4
:1039E0000000004040407F0000000000040202028E
:1039F00004000000000000000000000000000000C3
:103A000000008080808080808080000202040000AE
:103A100000000000000000000000000080808080A6
:103A200000000019242222223F2008F80080800094
:103A30000000003F112020110E0000000080808057
:103A40000000000E1120202011000000008080885E
:103A5000F800000E112020103F20000080808080A0
:103A60000000001F222222221300008080F088889C
:103A700088180020203F20200000000080808080E7
:103A80008000006B94949493600008F8008080801C
:103A90000000203F210000203F2000809898000077
:103AA00000000020203F20200000000000809898A7
:103AB000000000C08080807F000008F80000808047
:103AC0008000203F24022D302000000808F800006C
:103AD00000000020203F2020000080808080808027
:103AE0008000203F20003F20003F808000808080B9
:103AF0000000203F210000203F20000080808080C7
:103B00000000001F202020201F00808000808000F7
:103B1000000080FFA12020110E00000000808080A6
:103B20008000000E112020A0FF8080808000808017
:103B3000800020203F212000010000008080808044
:103B400080000033242424241900008080E0808039
:103B500000000000001F2020000080800000008086
:103B60008000001F202020103F20808080000080E7
:103B7000808000010E3008060100808000800080F7
:103B800080800F300C030C300F000080800080809C
:103B900080000020312E0E312000808080000080C7
:103BA000808080818E701806010000808080808077
:103BB00080000021302C2221300000000000807C99
:103BC000020200000000003F404000000000FF0033
:103BD000000000000000FF0000000002027C8000E6
:103BE00000000040403F000000000006010102020A
:103BF00004040000000000000000000000000000BD
:103C000000000000000000000000000000000000B4
:103C100000000000000000000000000000000000A4
:103C2000000000F0F0F000000000000000000001C3
:103C30007F010000000000000000001C1C1C0000B0
:103C4000000000008060301C8C60301C0C00000004
:103C50000000000000000000000000000000000064
:103C6000000000000000000000E00000000000E094
:103C700000000086E69F86868686E69F8600000115
:103C80001F01010101011F010100000080C060202F
:103C9000F820E0C00000000003070C18FF70E1816D
:103CA00000000000070F10107F100F070000806059
:103CB000206080000000E02000000F3020309F7066
:103CC000DC371030C0000000100E03000718101879
:103CD00007000000C02020E0C0000000000080E0DD
:103CE0001F38E88703C43C040000070F1810100BAE
:103CF000070D1010080000808C4C380000000000F8
:103D000000000000000000000000000000000000B3
:103D100000000000000000000000000000000000A3
:103D200080E0300804000000000000FEFF010000F9
:103D30000000000000000000030F182040000004F5
:103D40000830E0800000000000000000000001FFDB
:103D5000FE0000000000004020180F0300000000DB
:103D60000000000000000000C00000000000004251
:103D700066663C18FF183C666642000000000000C2
:103D800003000000000000000000000080000000B0
:103D90000000001010101010FF1010101010000084
:103DA0000000000003000000000000000000000010
:103DB0000000000000000000000000000000000003
:103DC000000000808C4C3800000000000000000063
:103DD0000000000000000000000000101010101093
:103DE0001010101010000000000000000000000083
:103DF00000000000000000000000000000000000C3
:103E00000000000000000000000000001C1C1C005E
:103E10000000000000000000000000000000E0388A
:103E20000C000000000080701C0300000000006017
:103E3000380E0100000000000000000080C060207B
:103E40002060C080000000FEFF010000000001FFB4
:103E5000FE000001070E181010180E0701000000E8
:103E6000808080C0E000000000000000000000FF33
:103E7000FF000000000000001010101F1F101010A5
:103E800000000080402020202060C080000000034F
:103E90000300804020381F070000001C1A19181862
:103EA0001818181F00000080C020202060C080006B
:103EB0000000000303001010182FE7800000000727
:103EC0000F10101010180F07000000000000000075
:103ED000C0E0F000000000C0B088868180FFFF8055
:103EE0008000000000000010101F1F1010000000D4
:103EF000E060606060606060000000003F100808E3
:103F00000818F0E0000000070B101010101C0F0341
:103F10000000000080C040202020E0C0000000FC25
:103F2000FF211008080818F0E0000001070C181025
:103F30001010080F03000000C0E06060606060E0E7
:103F40006000000003000000E0180700000000000F
:103F50000000001F1F00000000000080C060202043
:103F6000202060C080000087EF2C1818303068CF08
:103F7000830000070F0810101010180F0700000032
:103F8000C0C020202020C0800000001F3F604040B3
:103F9000402010FFFE0000000C1C101010080F0342
:103FA0000000000000000000000000000000000011
:103FB0000000000E0E0E0000000000000000001CBB
:103FC0001C1C0000000000000000000000000000B9
:103FD000000000000000000C0C00000000000000C9
:103FE0000000005838000000000000000000000041
:103FF00000804020100000001028448201000000D2
:104000000000000000000000010204081000000091
:10401000000000000000000000000084848484840C
:1040200084848484840000000000000000000000FC
:104030000000000010204080000000000000000090
:104040000000000001824428100000001008040253
:1040500001000000000000C020201010101030E00F
:10406000C0000003030000F010080C07030000006C
:1040700000001C1C1C0000000000000000C040608C
:1040800020202040C00000FCFF01F00E03C1FE0311
:10409000807F0001070E08111110110904020000B1
:1040A000000080E0E000000000000000807C434051
:1040B000477FF880000010181F1000000000131F39
:1040C0001C1020E0E02020202060C080000000FFC5
:1040D000FF10101010182FE78000101F1F10101075
:1040E0001010180F0700000080C040202020206022
:1040F000E00000FCFF0100000000000001000001E2
:10410000070E181010100804030020E0E020202003
:104110002040C080000000FFFF000000000001FF01
:10412000FE00101F1F10101018080E07010020E0DD
:10413000E020202020202060800000FFFF101010D1
:10414000107C00000000101F1F101010101010181D
:10415000060020E0E020202020206060800000FF9A
:10416000FF101010107C00000100101F1F10000035
:10417000000000000000000080C06020202040E01F
:10418000000000FCFF0100004040C0C140400001B1
:10419000070E181010100F0F000020E0E0200000A4
:1041A000000020E0E02000FFFF101010101010FFB2
:1041B000FF00101F1F1000000000101F1F10000044
:1041C000202020E0E020202000000000000000FF70
:1041D000FF000000000000001010101F1F10101042
:1041E000000000000000202020E0E020202000004F
:1041F0000000000000FFFF0000000060E080808001
:10420000C07F3F00000020E0E020000020A06020F0
:10421000200000FFFF30187CE3C000000000101FEA
:104220001F10000001131F1C181020E0E0200000E8
:1042300000000000000000FFFF0000000000000080
:104240000000101F1F10101010101018060020E0A2
:10425000E0E000000000E0E0E02000FF013FFEC0E1
:10426000E01E01FFFF00101F1000031F0300101FBE
:104270001F1020E0E0C0000000000020E02000FF50
:104280000003071C78E08000FF00101F10000000F2
:104290000000030F1F00000080C060202060C0806D
:1042A000000000FEFF010000000000FFFE00000112
:1042B000070E181010180C07010020E0E020202045
:1042C000202060C0800000FFFF2020202020301F21
:1042D0000F00101F1F100000000000000000000071
:1042E00080C060202060C080000000FEFF01000050
:1042F000000000FFFE000001070E1111133C7C6757
:10430000210020E0E0202020202060C0800000FF6D
:10431000FF101030F0D0080F0700101F1F10000012
:1043200000030F1C10100080C0602020202040409F
:10433000E00000070F0C1818303060E08100001F0B
:104340000C0810101010180F07008060202020E0CB
:10435000E020202060800100000000FFFF0000003E
:10436000000100000000101F1F100000000020E0EE
:10437000E020000000000020E02000FFFF0000001F
:1043800000000000FF0000070F18101010101008A8
:1043900007002060E0E02000000020E06020000036
:1043A000077FF88000807C03000000000000071FEA
:1043B0001C070000000020E0E02000E0E0200020DA
:1043C000E0200007FFF8E01FFFFCE01F00000000F6
:1043D000031F0300011F03000000002060E0A00095
:1043E0000020E0602000000000038F7CF8C6010080
:1043F00000000010181E130001171F181000206085
:10440000E0E02000000020E06020000001073EF80E
:10441000E0180700000000000010101F1F1010001F
:10442000000000806020202020A0E0E020000000AC
:104430000000C0F03E0F0300000000101C1F17100A
:104440001010101806000000000000FC0404040412
:1044500004000000000000FF000000000000000059
:104460000000007F404040404000000010E000009D
:1044700000000000000000000000031C608000003D
:10448000000000000000000000030C70800000002D
:104490000404040404FC000000000000000000000C
:1044A00000FF00000000000040404040407F00004E
:1044B000000000000010080C040C081000000000B0
:1044C00000000000000000000000000000000000EC
:1044D00000000000000000000000000000000000DC
:1044E00000000000000000000000000000008080CC
:1044F00080808080808080808080000000040408AC
:1045000008000000000000000000000000000000A3
:10451000000000000000000000000000000000009B
:1045200000000000000000000000000098D8446473
:104530002424FCF80000000F1F18101010081F1F83
:1045400010180020E0F00000000000000000000053
:10455000FFFF180804040CF8F00000001F0F1810EB
:104560001010180F03000000000000000000000001
:10457000000000E0F8180404043C380000000003C8
:104580000F0C1010101008060000000000000000C2
:104590000020E0F0000000E0F81C04040408FFFF25
:1045A000000000030F18101010081F0F0800000073
:1045B000000000000000000000000000E0F8484497
:1045C00044444C7870000000030F0C1810101008C1
:1045D00004000000000080C0602020E0C000000453
:1045E0000404FFFF040404040000000010101F1F57
:1045F000101010000000000000000000000000008B
:104600000000000070F88C04048CF874040C007036
:1046100076CF8D8D8D89C87870000020E0F0000085
:104620000000000000000000FFFF08040404FCF884
:10463000000000101F1F100000101F1F10000000BE
:10464000000000606000000000000000040404FCA2
:10465000FC000000000000001010101F1F101010C0
:10466000000000000000000000606000000000008A
:104670000000040404FCFC0000000000C0C08080B6
:10468000C07F3F0000000020E0F0000000000000BC
:1046900000000000FFFF80C0F41C040400000010B4
:1046A0001F1F1100031F1C1010000000202020E01D
:1046B000F000000000000000000000FFFF0000000C
:1046C000000000001010101F1F101010000000004C
:1046D0000000000000000000000004FCFC0804FCD6
:1046E000FC0804FCFC00101F1F10001F1F10001FFF
:1046F0001F10000000000000000000000000000487
:10470000FCFC08080404FCF8000000101F1F100047
:1047100000101F1F1000000000000000000000003B
:10472000000000E0F0180C04040C18F0E000000396
:104730000F0C101010100C0F030000000000000000
:104740000000000000000004FCFC080404040CF855
:10475000F0000080FFFF889010101C0F0300000085
:104760000000000000000000000000E0F81C04044D
:104770000408F8FC000000030F1810109088FFFFD9
:1047800080000000000000000000000000000404A1
:1047900004FCFC100804040C0C001010101F1F1067
:1047A00010100000000000000000000000000000E9
:1047B000000000003078CCC48484840C1C0000000D
:1047C0001E1810101011190F06000000000000C084
:1047D00000000000000000040404FFFF04040400C3
:1047E0000000000000000F1F1010100C000000005F
:1047F000000000000000000000000004FCFE0000BB
:104800000004FCFE000000000F1F181010081F0F0E
:10481000080000000000000000000000000000048C
:104820000C3CFCC40000C43C0C0400000000010F60
:104830001E0E01000000000000000000000000004B
:104840000000043CFCC400E47CFC84807C04000088
:10485000071F070000071F070000000000000000FE
:104860000000000000000004041C7CE4C0341C04B0
:1048700004000010101C1601131F1C18100000006B
:104880000000000000000000000000040C3CFCC41C
:1048900000C43C0404000000C080C1370E010000C9
:1048A0000000000000000000000000000000000008
:1048B0001C0404C4F47C1C0400000000101C1F171E
:1048C000111010180E0000000000000000F80C0489
:1048D000000000000000001028EF000000000000B1
:1048E00000000000003F60400000000000000000E9
:1048F000FF0000000000000000000000FF000000BA
:104900000000000000000000FF00000000000000A8
:10491000040CF80000000000000000000000EF2878
:10492000100000000000000040603F000000000098
:1049300000000018060202040810202030080000C1
:104940000000000000000000000000000000000067
:104950000000000000000000010000000000000056
:104960000000000000000000000000001000000037
:104970000001000007000000010000002C00C441FD
:1049800008070900020000001F4E000000000000A0
:10499000000000000000000008077C00020000008A
:1049A0009F0F000000000000000000000000000059
:1049B000080300001800000000300000080100009B
:1049C000E80300000001000049523A0048656C6CA1
:1049D0006F2C596168626F6F6D210000004A000002
:1049E0000000202020000000482F0000204A000086
:1049F0002000202040090000602F0000000000007F
:104A000000000000CDCCCC3E00000000CDCCCC3D61
:104A10000000000000000000000000000000000096
:04000005000000C136
:00000001FF
