:020000040000FA
:1000000020122020BD010000C1010000C30100003A
:1000100000000000000000000000000000000000E0
:10002000000000000000000000000000C50100000A
:100030000000000000000000C7010000C90100002E
:10004000CB01000011170000CB010000292E000099
:1000500035110000CB010000CB010000CB010000F6
:1000600000000000CB010000CB01000000000000F8
:1000700000000000A92D0000D12D0000592D000026
:10008000752C0000CB010000CB010000592C0000B2
:10009000CB010000CB0100000000000000000000C8
:1000A000CB010000CB0100000000000000000000B8
:1000B000CB01000000000000CB010000CB010000DC
:1000C00000F002F800F04FF80CA030C808382418EF
:1000D0002D18671EA246AB4654465D46AC4201D180
:1000E00000F041F87E460F3EB6460FCC0126334263
:1000F00000D0FB1A3343A246AB461847AC3A000087
:10010000CC3A000000000000103A02D378C878C151
:10011000FAD8520701D330C830C101D504680C6049
:100120007047000000000000002300240025002686
:10013000103A01D378C1FBD8520700D330C100D5A3
:100140000B60704710B5642902D100F091F810BD22
:10015000782902D100F0C2F810BD002010BD1FB5F3
:100160001FBD10B510BD00F06BFF1146FFF7F7FF84
:1001700003F02DF800F083FF03B4FFF7F2FF03BC98
:1001800002F064FF70B505460C46164602E00FCC3F
:100190000FC5103E102EFAD2082E02D303CC03C591
:1001A000083E042E07D301CC01C5361F03E0217899
:1001B0002970641C6D1C761EF9D270BD064800477C
:1001C000FEE7FEE7FEE7FEE7FEE7FEE70348044939
:1001D000024A044B70470000C1000000200A2020A2
:1001E00020122020200A20200FB4054910B503AAB0
:1001F000029800F0AFFE10BC08BC04B01847000025
:10020000D0042020F8B50E46044600202062204687
:10021000E1688847002829D0252802D06268A168B3
:1002200020E0E16820460027884705001ED02846C8
:100230004138192802D80127FF02203532462046CE
:1002400027602946FFF77EFF002808D0012804D048
:10025000F61DF608F6000836D9E7361DD7E76268BE
:100260002846A1689047206A401CCFE7206AF8BD65
:10027000F7B5002575291068009914A611D0C0465D
:10028000C046002802DA404211A608E00099096839
:100290008A0701D50FA602E0490704D50EA601255D
:1002A00001E0C046C046009F0024243704E000F06F
:1002B00065FE30313955641C0028F8D12B46324692
:1002C0002146009800F0EDFDFEBD0000000000009A
:1002D0002D0000002B0000002000000070B5044637
:1002E0000D4621461068C046C0462188090502D542
:1002F0000F4A7A4402E00E4A7A440E322346002125
:10030000243305E006070009360F965D5E54491C4C
:100310000028F7D120780023000705D5702D03D0E1
:10032000002901D002231132204600F0BAFD70BD31
:100330003635000010B5044603E002F03FFF401CD4
:1003400008D020780549641C0028F6D10A2002F064
:1003500035FF10BD0020C04310BD0000D004202098
:1003600001E004C0091F0429FBD28B0701D50280DC
:10037000801CC90700D00270704700290BD0C3074A
:1003800002D00270401C491E022904D3830702D503
:100390000280801C891EE3E70022EEE70022DFE7EF
:1003A000002203098B4273D3030A8B4258D3030BF9
:1003B0008B423CD3030C8B4221D312E003460B4308
:1003C0007FD4002243088B4274D303098B425FD34E
:1003D000030A8B4244D3030B8B4228D3030C8B427A
:1003E0000DD30902FF2212BA030C8B4202D3121260
:1003F000090265D0030B8B4219D300E0090AC30B35
:100400008B4201D3CB03C01A5241830B8B4201D3E1
:100410008B03C01A5241430B8B4201D34B03C01ACA
:100420005241030B8B4201D30B03C01A5241C30A42
:100430008B4201D3CB02C01A5241830A8B4201D3B3
:100440008B02C01A5241430A8B4201D34B02C01A9D
:100450005241030A8B4201D30B02C01A5241CDD242
:10046000C3098B4201D3CB01C01A524183098B428D
:1004700001D38B01C01A524143098B4201D34B0176
:10048000C01A524103098B4201D30B01C01A5241D9
:10049000C3088B4201D3CB00C01A524183088B4260
:1004A00001D38B00C01A524143088B4201D34B0049
:1004B000C01A5241411A00D20146524110467047BB
:1004C0005DE0CA0F00D04942031000D340425340C0
:1004D0009C46002203098B422DD3030A8B4212D380
:1004E0008901FC2212BA030A8B420CD389019211B2
:1004F0008B4208D3890192118B4204D389013AD0EF
:10050000921100E08909C3098B4201D3CB01C01AC3
:10051000524183098B4201D38B01C01A52414309D6
:100520008B4201D34B01C01A524103098B4201D3C4
:100530000B01C01A5241C3088B4201D3CB00C01A31
:10054000524183088B4201D38B00C01A5241D9D249
:1005500043088B4201D34B00C01A5241411A00D2CA
:1005600001465241104663465B1001D34042002BC6
:1005700000D54942704763465B1000D3404201B545
:100580000449002802DC491C084000E00846C04637
:10059000C04602BDFFFFFF7F7047704770470000F5
:1005A0000246C80FC00781434B0030B54B405B008B
:1005B0009B0D20D01923DB06C91801231B05994286
:1005C00020DB0324A40704251346AB400BD3002BE8
:1005D00004D1EB0613409B00E34204D401246407DA
:1005E000002312195941FF231B0599420BD2C90060
:1005F0000143500F09E0CB0204D501430803024335
:1006000005D0054830BDFF21C905084330BD084667
:1006100007210905884330BD0000C07FF0B50C46B6
:10062000871A9C410D46861A9D4103D2C01BA141E9
:10063000D21963410D0D1F0DC94EEC1BAE435CD0AA
:100640007F057F0D0026002F51D02D05AC46A94314
:10065000DD020123ED0A1B051D4320231B1B24D4AF
:100660001746E740381871412F46E740CC199D40A6
:100670002818314661410C0D27D161449A4013D5A9
:100680000023401C594152000ED140084000012275
:100690004B005205D34207D305204007C14201D584
:1006A000B04900E0B0493046F0BD6B00002A00D0F0
:1006B00001229A181F23203C1B1B01D5002302E0B6
:1006C000E540281871410C0DD7D0012424050919E3
:1006D000C407CD0740084908E40F28436144002CB3
:1006E000D5D00024401C61419A40D0D1CDE76A05A5
:1006F000520DD9D1C90FC907D5E79C4D4E0000282E
:1007000001D0012400E0002434195F00002A01D048
:10071000012600E00026BE19954FAC420CD8AE422F
:100720000AD8B44206D001256D05EC42BCD0104673
:100730001946F0BD9942FCD000203946F0BDF0B515
:100740001FB40C460F46811A9F412546861A9D41CB
:1007500006D20125ED076F40401ABC4152187B417B
:10076000210D1E0D8D1BAC467D4D8D437ED0750534
:100770006D0D7CD00D05AE46AC431B031B0B794DB4
:1007800052429D41202366469B1B14D31746F740D7
:10079000381800260090744160462F460741E4193E
:1007A00000989D402818664116D4714671189A40E9
:1007B00025D5012320E093182A466A415200002BD8
:1007C00000D0521C1E23203E9B1B002B61DD3541B7
:1007D000EE1728186641E8D5001876415B1C9A4050
:1007E00000D3401C4B05F3181524E34010D3002B15
:1007F00052D071467118D30FC01802D3491C05B0EE
:10080000F0BD0123DB079A42F9D140084000F6E72A
:1008100001225205B21801D1002853D00123CC0A7D
:10082000DB029943891E002A08D1020C03D0020C76
:100830000004103902E00246002020390023550B45
:1008400005D112020823550B01D152010D23550C7D
:1008500001D112011B1DD50C01D192009B1C150D5D
:1008600001D152005B1C2025EE1A01E02CE022E0B1
:100870000546F54015439840CA1AE1076918130563
:10088000C918002ABBDA032040070818C10FC9079E
:100890000FE071466118B2E7F10740080843711094
:1008A00071444A000CD001235B059A42A7D2C90FBC
:1008B000C9070020A3E74905490D26D1002001E022
:1008C0000028F4D100219AE7284D6600002801D0C5
:1008D000012100E0002171185F00002A01D00126EB
:1008E00000E00026BE19224FA94210D8AE420ED811
:1008F000B14208D001256D05E94206D01946A8028B
:10090000414010467BE79C4201D0214677E700201A
:10091000394674E710B50C465C4005D50124E40760
:100920006340FFF70CFF10BDFFF778FE10BD30B439
:100930000C465C4004D50124E407634030BC6DE6FE
:1009400030BCFCE670B50124E40761400D465D4013
:1009500002D4FFF763FE70BD6340FFF7F0FE70BD89
:10096000FF0700000000F0FF0000F07F0000E0FF44
:100970000000F87F1F22030C02D10F22000402D0D6
:10098000030E03D004E00020014670470002083A3D
:10099000030F01D10001121F830F01D18000921EAD
:1009A000002801DB4000521E120551184205C012FA
:1009B000411810467047C10FC90700D040420122BC
:1009C00092071143D6E701218907D3E7F0B58B4C95
:1009D0000F09254689B0BD437BD01D092646AE438D
:1009E000FAD00E465E402740F60F3E43254071D0B8
:1009F00024012142FBD0FF24AD19A4042D1B039533
:100A000001252D05DB02DB0AC9022B43C90A294354
:100A10001E010901040F130F050121431701880B63
:100A2000820391432D098C46A90B1E438A039543EB
:100A3000B30B9A0396433F09BA0B9403A74302965C
:100A40002E467E430497B6464E19D7190C4601969A
:100A5000544305977E43371B7646BF1B3601B64687
:100A6000BE0B361900967646BC043719009C01D39C
:100A7000641C00946400002F01D001263443029EC0
:100A8000049F754366467E430496760034196E00D3
:100A900034190094029C019E1C196643751BAE46D6
:100AA000069465464519059C05956C435943754662
:100AB0000891691A0191049E01465143A41B0491B7
:100AC000611A009C0791E10605D0610901221143DA
:100AD00002E072E06EE06109089D00272C0A2D06F5
:100AE0006918049D7C412A0A2D066918019D6241FE
:100AF000AC0DAD026D185441079A910D9202551933
:100B00006141029A644658435443069B059A5A43EE
:100B1000121A131B9A0E9B015B187A41010B0005F8
:100B2000C3185141220A200644195A419A4200D260
:100B3000491C01204002814203D315230226F643BB
:100B400002E014230326F6432020C51AA9401746C5
:100B5000AF40DA400A4320460399D840091473187D
:100B600019055118039A3843D2075140AC4009D0B7
:100B70000122944006D30022401C5141002C01D197
:100B8000400840001E4A934212D301220398920665
:100B9000904207DB0520400709181A480143C0129C
:100BA000414004E0032040070818C10FC907002096
:100BB00009B0F0BD0020F107FAE705180C464C41DA
:100BC00011486D42A04115D394181A465A410E4857
:100BD000644290410ED301204A004005824209D36D
:100BE0005A00824206D35940C90F084AC90700205B
:100BF0001143DDE700200649DAE700000000FF07A7
:100C0000FE070000FFFFFF7F0000E0FF0000F07F15
:100C10000000F87F0121C9050123411842001B068D
:100C2000D3185B0E0AD0C1100722D20689184007DC
:100C30005242D14201D5520089187047090208D5A5
:100C40000146002A03D0C10FC90700207047104693
:100C50007047420202D0002002497047072109056F
:100C60000143F4E70000F87FF0B5FF252D04C60925
:100C7000C209FF2704462E400137CB093E434840B6
:100C80002A402B400746002A6BD0002B69D0AA428D
:100C900067D0AB4265D0002800DA32460125ED0569
:100CA00029432C4309022002090AD21A4B0C7F2443
:100CB000E31A434C000A7C44E35C7D2424041219AB
:100CC00014145B00A218884201D3521C00E04000BB
:100CD00049420C465C4324115C43DB016415E31874
:100CE000040A5C43C502200D0C4644436419250ADE
:100CF0005D432303EC0C0D46654300030019EB181C
:100D00004C42A34201D35B18401CD4052018002B91
:100D100007D05B00C91804D3401C002901D140084A
:100D200040003F2189048A4209D3002A08DC1106C9
:100D3000090F04D0032149074018C00FC007F0BDB8
:100D400001224100120689187F2252069142F6D2F2
:100D500005214907C84201D59010F0BDFF20C0050C
:100D6000F0BD002F00DA32461648AA4207D2AB4245
:100D700005D21902090E17D0F80FC007F0BDFF25E4
:100D800063002D06AB42F9D84900A942F6D8AB4220
:100D900001D1A942F2D0A94201D1002101E06100B4
:100DA0004908D0050843F0BD1102090EFBD0FF2011
:100DB0000243D005F0BD0A460146104654E7000044
:100DC0009A2B00000000C07F10B501469E2400024F
:100DD000CA15A307002A02D01843002A04DBA21A6E
:100DE000002A0CDDD04010BD1206120E01D14000C9
:100DF0004008A21A03D4D04040420028F3DDFF226D
:100E000048001206904201D9002010BDC817C04307
:100E1000584010BD0102C21504D00123DB0719435D
:100E2000002A0ADB9E239A1A02D40846D040704753
:100E3000FF2241001206914201D900207047C017DD
:100E4000C04370471F22030C02D10F2200041CD0A4
:100E5000030E01D10002083A030F01D10001121F55
:100E6000830F01D18000921E002801DB4000521E3A
:100E7000D2055118021251181922904004D3491C6E
:100E8000002801D14908490008467047C10FC90729
:100E900000D04042012292071143D3E70121890784
:100EA000D0E7FFB504460D4681B02430009021689C
:100EB000880604D51022E0699143216000E00120FA
:100EC000A84201DD471B00E000270498A1697A19B8
:100ED0001018081AA0612078C00602D42046C04627
:100EE000C046002608E003986268A168805D9047CC
:100EF000206A401C761C206204988642F3DB20782E
:100F0000C0060AD52046C046C04606E06268A16811
:100F100030209047206A401C206238467F1E0028FF
:100F2000F4DC07E000986268A168405D9047206AA1
:100F3000401C206228466D1E0028F3DC2046C04677
:100F4000C0462078000602D5022005B0F0BD012081
:100F5000FBE70000084B70B50D467B4400F027F816
:100F60000446284600F036F8002802D00020C0438E
:100F700070BD204670BD00005F2200000146800861
:100F8000081A02091018020A1018020C1018C008DA
:100F9000820012185200891A01E0401C0A390A29FD
:100FA000FBD2704701694A1C02610878704700B59E
:100FB0008FB0029100210591054901937944039175
:100FC000114604906846FFF71DF90FB000BD000000
:100FD000E5FFFFFFC06880210840704710B5FF2380
:100FE0001B0644009C421DD84C009C421AD8034664
:100FF000124A0B4307D4401A02D3EFF3008010BD0E
:10100000EFF3008010BD081A03D3EFF30080904384
:1010100005E0EFF3008001219043C907084380F306
:10102000008810BD0D231B041A4204D01146002075
:1010300000F02DF810BD00F041F810BD0000009048
:10104000754600F043F8AE46050069465346C008B1
:10105000C000854618B020B5FFF7B8F860BCB646AA
:1010600000260027C0C5C0C5C0C5C0C5C0C5C0C515
:10107000C0C5C0C5403D490849008D46704710B500
:101080000446C046C0462046FFF776F810BDC802A9
:1010900012D54803400F002804D0C803C0430121E3
:1010A00088407047EFF30080000100090321090721
:1010B000084380F3008870470020704710B502484D
:1010C00000F008F810BD00000000C07F0048704725
:1010D0002800202010B50C461107090F092904D05B
:1010E0000A290AD008290CD104E011460820FFF78C
:1010F000CEFF06E0510606D501E0510601D50120DC
:10110000C007214610BDD10607D501010909CC0849
:101110004907000E0006044309E0410F2002490779
:10112000000A0143200E00061D22D141014308465A
:10113000E7E7000004480068C0B20D2802D1034868
:10114000012101707047C046201000402A05202070
:101150000548102101600548016801221143016022
:10116000500203490860704700E100E000110040B0
:1011700090320A40B0B50A78032313400B4A8458D2
:101180000B4D2540EB18A92424061B198350072278
:1011900012064B6813401124240205599543EA189E
:1011A0000251001949780161B0BDC046080800002D
:1011B000FCFFFF00811E091F00BFFCD2704700002A
:1011C000B0B51122120283580C4C1C400B894D887B
:1011D0001D438B792B430A4D1D402B1983508B885F
:1011E000CC791C43097821435D239B00194080186A
:1011F00042689A4389184160B0BDC04680CCFFFF69
:101200007F33000010B50122120383180C785C6054
:101210004978815010BD0000F0B584B0012422024D
:101220002A4B196803929143196049490D686D046E
:10123000FCD5457E25409E69A64374199C612024F7
:10124000045D03252C40DE69AE433419DC61204C7B
:10125000256805262660466A37681F6276685E62E2
:1012600007262E402660C4697F252D02DE69AE4325
:101270006406640C3419DC61076845688268009272
:10128000C66802690192426902929A69114C14403F
:101290003A07120B2D03ADB2AA183243009D2D0759
:1012A0002D0D1543019A1543029A1543007E2843DC
:1012B000094A0240101998611868039A104318608F
:1012C00008688005FCD504B0F0BDC04608010B409D
:1012D000001340408D00F0FF72FF0F00F0B5124B7D
:1012E0001D46083D2E680124A6432E6003263603C2
:1012F00030401F68B743381818601868FF26B0439D
:10130000C9B240181860286820432860186821076F
:10131000002A06D0084318600D480168C905FCD5AD
:10132000F0BD88431860F0BD10010B40074988608C
:10133000074802689202FCD5012212040B6813438D
:101340000B600168C906FCD57047C04604010B401C
:1013500004020B40F0B57A4A82183B4BC318087957
:101360004E793A4D784C002E23D0202804D0052603
:10137000F601002803D003E0354E002800D188266E
:10138000576F2F4037435767976F2F403743976703
:10139000566B26405663966B26409663002656652C
:1013A00096658F26F6435F6837405F609F683740D9
:1013B0009F608E79096820280BD0002819D1491E1A
:1013C0005160D76E2F4088210F43D766174670377C
:1013D00019E0491E5160D16E29401D4F3943D16635
:1013E000116F29403943116701214907194D1746EB
:1013F00009E049085160D76E2F400521C9010F430C
:10140000D766174670373C682C400C433C60D16A65
:101410004D4C2140D162116B214011630021D164F8
:1014200011658F21C943D46F0C40D4671C680C40F0
:101430001C600643BD2030401168074B0B40C018AC
:10144000801C1060F0BDC0468418000024493E0096
:1014500001040000FFFFFFCF4000FFCFB0B54A6896
:10146000364BC250364A80180A78222A58D8930040
:1014700001A4E3589F46C04617150000211500003F
:10148000171500002115000021150000211500008E
:101490002115000021150000211500002115000074
:1014A0002115000021150000211500002115000064
:1014B0002115000021150000051500002115000070
:1014C0000515000021150000211500002115000060
:1014D0002115000021150000211500002115000034
:1014E0002115000021150000211500002115000024
:1014F0002115000021150000051500002115000030
:101500000515000003231B0704689C4301235B07A8
:10151000E318036004E003231B0704689C43046092
:101520000B69C360CB68074C1C40C36A064D1D4065
:101530002B19C362097A11430160B0BD081800007D
:1015400004180000777702008888FDFF10B5072394
:101550009B04194092008018024A84589C436118E9
:10156000815010BD3018000010B5029CA400001975
:1015700011431943014A815010BDC0465018000064
:1015800092008018014A81507047C0461018000030
:1015900010B50122120383180C789C604B7883509D
:1015A0008978014A815010BD0C110000B0B511229C
:1015B000120283580124A34383500B888C781C4368
:1015C0008B882343094C1C408358094D1D406319E7
:1015D00083508B79CC791C43097A21437E231940AF
:1015E000801842689A4351184160B0BD18670000E6
:1015F000E798FDFF10B50122120383180C789C6058
:101600004978815010BD000010B5242808D1144835
:10161000242101701148012101700F48016010BDA3
:101620000D490B680D4A1478012C0AD10C4CE0547A
:10163000232806D1002010700A48012404700A48AB
:101640000360581C08604F2B04DB002010700860FA
:101650000449087010BDC046000720201C0A202045
:10166000CC072020680820200407202010B5214A3C
:10167000D178322903D00020312903D003E006209D
:10168000312900D105201C490870D379322B0AD0AA
:10169000312B12D1194B1B68AF24A400A34200DBED
:1016A0002346642406E0154B1B68C82B00DCC823C6
:1016B0006324E4431B19114C2360431FDBB2022B4C
:1016C00013D35278303A042A07D801207A44127989
:1016D00052009744020904060800002004E002209A
:1016E00002E0032000E0042008700449098801F0AA
:1016F000D1FE10BDDC022020E006202000002020CA
:101700004049096901604149096941607047C04623
:10171000F0B581B039480468A0074FD5384D284648
:10172000103800684202910F22D00321490583023C
:101730000ED4002A19D501225605644A1768314B88
:101740005A681B6837420AD000265B1C724109E0C8
:101750005E4A16682B4B5A681B687602F4D5002641
:101760005B1EB241274E336072602A680A432A60CA
:10177000810417D5012624490F680022D343002F86
:10178000194600DA11467203002F00DA33461F4E65
:1017900077683568EB1833604F417760184D2968DA
:1017A00011432960000709D548480068000701D4A3
:1017B00001F012FD2868082101432960E00705D0E7
:1017C0001348014610390968002901D401B0F0BD61
:1017D0003E490A68012192040B4601D50023DB43F0
:1017E0000A4C6568D2172668F31823606A41626064
:1017F000C90702680A43026001B0F0BD30114040E1
:1018000048300A402008202080130A403808202051
:1018100048100A400248016801220A4302607047EA
:1018200004188640F0B581B0284C206821680091EA
:10183000890E0301DD0F2F460F4022680120164656
:1018400006402468A407E40F002F07D0002E05D01F
:10185000002C03D11E490320087029E0002B09D475
:101860000B461340034005D0002C03D01849FD203F
:1018700008701DE0002F06D0002E04D1002C02D0ED
:101880001349087014E0154209D08006009B0340FC
:1018900005D1002C03D00E49FF20087008E00A4350
:1018A000D00703D10A490020087001E008480078F9
:1018B00040B201F00BFAFFF787FA0649086002B25E
:1018C000FA20002100F008F801B0F0BD80330A4092
:1018D00092002020BC08202080B501F063FD80BD6F
:1018E000F0B583B00190294C2046FFF709FF284846
:1018F00001680CCC026044684360501A25491D1BE6
:1019000021C132267043FFF7C1FA234901F0CEFE10
:10191000224F3946FFF7A8F9044602906E4330463D
:10192000FFF7B4FA1C4901F0C1FE3946FFF79CF9F4
:101930000746214601F012FF3F210D06294601F01E
:10194000B5FE0646FFF740FA019C608002983946D2
:1019500001F03CFE294601F0A9FEFFF735FA208090
:101960000F493046FFF780F90E4901F09FFEFFF75F
:101970002BFAA0801F480078002805D01E48029945
:1019800082C0083800F092FB03B0F0BDEC062020C6
:10199000E4062020F40620206A7C524300401245D1
:1019A0000A171D4300007A44B0B51148FFF798FFAD
:1019B00010480078002819D00F4D288A002803D13C
:1019C0000E4800218160A960688A002804D0E86878
:1019D000FFF7FAF9044603E0084800240463EC60CA
:1019E000A868FFF7F1F9214600F016FCB0BDC0462B
:1019F000240520200A072020500820206C082020E1
:101A000070B50025012801D02C4600E00B4C0C4E8F
:101A1000032230462146FFF7B3FD0222304621461D
:101A2000FFF7AEFD304621462A46FFF7A9FD012209
:101A300030462146FFF7A4FD70BDC04652030000AA
:101A400000008640F0B595B0C826304601F054FB42
:101A5000AE200025294600F0D3FA2846294600F09A
:101A6000CFFA10200890294600F0CAFA28462946E5
:101A700000F0C6FAB020294600F0C2FA81202946BB
:101A800000F0BEFAFF20294600F0BAFAA12029464C
:101A900000F0B6FAA620294600F0B2FAA82029469E
:101AA00000F0AEFA1F242046294600F0A9FA30467D
:101AB000294600F0A5FAD320294600F0A1FA2846CD
:101AC000294600F09DFAD520294600F099FA802792
:101AD0003846294600F094FAD920294600F090FAB9
:101AE00007942046294600F08BFADA20294600F0B8
:101AF00087FA2846294600F083FADB200190294620
:101B000000F07EFA40201490294600F079FA8D20EA
:101B1000294600F075FA1420294600F071FAF448BD
:101B20000570001D7F1EFBD1F14E701C80210570D9
:101B3000001D491EFBD1B01C80210570001D491EEF
:101B4000FBD1F01C80210570001D491EFBD100F067
:101B5000D9F9AF200021059100F052FAE54878212B
:101B6000044609E00A90099E1836069C6178641CB8
:101B7000E048821C94424FD006942039C8B2062116
:101B800004914843DC4908180A900996059F0EE025
:101B90002C433F2004401146149B194061188023B8
:101BA0001A4089183170361D7F1C062FDAD0347820
:101BB000FE2301210A98C25DD00710910E9301D037
:101BC0000C4300E01C40FD25022190070F9101D538
:101BD0000C4300E02C40FB23042150071293139187
:101BE0000D9501D50C4300E01C40F7230825100794
:101BF000119501D52C4300E01C40EF20D1060B903D
:101C000002D508990C4300E00440202591060C936E
:101C1000BED407990C40BCE70995F84EF036B74F93
:101C20007921139D059308E0039E1836029F797869
:101C30007F1CB248821C97424AD002972039C9B211
:101C400004984143AC4A5018069000270396324648
:101C50000FE021430A98059C01403346149D2B4018
:101C6000C918264089191170121D7F1C062F139D5B
:101C7000DAD011780698C65DF30702D0109B19439D
:101C800001E00E980140099CB30702D50F9B194350
:101C900001E00D980140129873070BD529433307D3
:101CA0000BD40C980140F3060BD40B980140B306FB
:101CB000CFD40AE001403307F3D5119B1943F30653
:101CC000F3D5089B1943B306C3D4079B1940C1E75A
:101CD0008B4889490818002111E00F9A1643F32513
:101CE0002E401A091346139F3B40F318119E3240B1
:101CF0009A18129BDA70091D401C18292CD0BF4A73
:101D00005218129296780378DF07099D06D0089A38
:101D100016439F0706D4079A164004E0089A964394
:101D20009F07F8D52E430A9A16401A011746149DAC
:101D30002F40F6192240B218129DAA70EE78DA06EA
:101D400002D5109A164301E0109A9643F1259A069F
:101D50000D95C2D42E40C2E70E95A8491B31002034
:101D6000C04312909C22099D0FE00F9806430E98E5
:101D70000640180903462B40F3183840181808701D
:101D8000091D521CA22A099D2BD012980E5C5A489C
:101D9000835CD80706D008980643980706D40798AE
:101DA000064004E0089886439807F8D52E430A9821
:101DB000064018010746149D2F40F61920403018A0
:101DC000129D48550E78D80602D51098064301E0BA
:101DD00010988643139D119F9806C6D40D9806400F
:101DE000C5E78649F3311298421F0EE00F9806436B
:101DF0000E980640180903462B40F318384018186F
:101E00000870091D521C099D2ED212980E5C3A488A
:101E1000831801984700DB5DDF0706D0089806436A
:101E20009F0706D40798064004E0089886439F075A
:101E3000F8D52E430A98064018010746149D2F40F6
:101E4000F61920403018129D48550E78D80602D554
:101E50001098064301E010988643139D119F980641
:101E6000C4D40D980640C3E7852040006349081894
:101E70009C2110E00F9D2B43139D0E9E33401209B1
:101E800016462E409B193A409A184270001D491C74
:101E9000A229099D28D00378174A525CD60706D09C
:101EA000089E3343960706D4079E334004E0089EFD
:101EB000B3439607F8D52B430A9D2B4016013746AE
:101EC000149D2F40DB1926409B1903704378D606DA
:101ED00002D5109D2B4301E0109DAB43119F0D9D3A
:101EE0009606C7D42B40C7E700F00CF815B0F0BD3C
:101EF000930020209C3B0000A03800009F3B000086
:101F00000A020000F0B585B00120C10303918007EB
:101F100004900020394F02905038C0B2002421466E
:101F200000F06EF82046214600F06AF810202146A5
:101F300000F066F8049E5C480660039D056004247A
:101F4000204601F0F1F858480661204601F0ECF80F
:101F500055480561204601F0E7F8782000F0C4FDFF
:101F600051480660204601F0DFF84F4805602046E2
:101F700001F0DAF84C480561204601F0D5F8402020
:101F800000F0B2FD48480660204601F0CDF8464812
:101F900005600646204601F0C7F83561204601F08D
:101FA000C3F880260197387800F09EFD04983E49DA
:101FB00008600424204601F0B7F8039D3A48056004
:101FC000204601F0B1F838480561204601F0ACF830
:101FD000761E3F1D002EE6D1049C334D2C610398E4
:101FE0002860042001F0A0F82C60019F7F1C02985B
:101FF000401C04288FD105B0F0BDC04693002020BE
:10200000F0B583B00191029001208607264D2E6025
:10201000C7032F600424204601F086F82E61204675
:1020200001F082F82F61204601F07EF8782000F060
:102030005BFD2E60204601F077F82F60204601F00E
:1020400073F82F61204601F06FF80199481E814115
:10205000880100F049FD2E60204601F065F82F60F0
:10206000204601F061F82F61204601F05DF80298EA
:1020700000F03AFD2E60204601F056F82F60204611
:1020800001F052F82F61204601F04EF82E612F60CA
:10209000204601F049F82E6003B0F0BD0120400455
:1020A000014908607047C04690120A40B0B5044626
:1020B0000168584D284600F025F8A0606168283571
:1020C000284600F01FF8E060B0BDC046022817D8CF
:1020D0000CD150480021016381608161C1610162BE
:1020E0004162016441648164C164704728214143B5
:1020F00048484018002181608161C16101624162EC
:102100007047C046F0B581B00446C0690090266AA9
:10211000E661206801F022FB0746A061206231469B
:1021200001F01CFB0146E06801F0C0FA0546216998
:10213000384601F0BBFA0146284601F047FA054649
:102140003046314601F042FA0146384601F006FBBE
:10215000009901F03BFA0146606901F0A7FA0146D7
:10216000284601F033FA0146A06801F02FFA05462F
:10217000A060094E314601F01EFA002806D1074E34
:102180002846314601F00CFA002801D1A6603546F8
:10219000284601B0F0BDC04600C0414400C041C463
:1021A00010B51C490020086088620D4A0D4B0E4C8A
:1021B0008860CC600B614A618861C86108624862CE
:1021C00008634C638B63CA63086448648864C864AA
:1021D0000649074A074B4B608860CA6010BDC0467D
:1021E0009A99193ECDCC4C3E9A99993E0C002020EC
:1021F000CDCCCC3DCDCCCC3E022809D803D105486E
:102200000160283003E02822424302488018016020
:102210007047C0466C08202070B500222C4C002866
:10222000134607D0A042234604DB2A4B984200DB2A
:1022300018460346002907D0A142224604DB254860
:10224000814200DB01460A4690B2002801D01046C8
:102250004B3811B2002901DC024600E04B3298B243
:10226000002801D018464B3819B2002901DC03467A
:1022700000E04B3315B21EB2174C002E06D4B1B29B
:1022800003222046FFF77CF9002106E0002103220B
:102290002046FFF775F9704281B202222046FFF70F
:1022A0006FF9002D06D4A9B2002520462A46FFF773
:1022B00067F906E0002120460A46FFF761F9684207
:1022C00085B2012220462946FFF75AF970BDC04663
:1022D000AEFCFFFF5203000000008640B0B51B4B70
:1022E0001C781B4D2855002C06D12878AA2803D02D
:1022F000002028701870B0BD012C07D168785528CF
:1023000004D0002068706119491E0EE0042C0FD122
:102310002879FB280CD00020287161198A1E1070C2
:102320004A1E1070CA1E1070091F08701870B0BDC8
:10233000042C03D1A8780870E8781070601CC1B232
:10234000052900D100201870B0BDC046D30220205E
:10235000D40220200021818041800180704700004C
:1023600010B50124A0071449FEF704FF1348416883
:10237000134A0A402104511841608168114A0A40F9
:10238000A10651188160104902220A6004224A60A5
:1023900005228A600322CA6000220A610B4941615A
:1023A00021030B4A136A0B43136213680B43136038
:1023B00001682143016010BDC83A000000110040CF
:1023C000FEFFECFFF8FFE0E080110040204E00002F
:1023D0002810004070B53D4A0020D0611062842072
:1023E000906501210B023A480360852494660B0333
:1023F00003605461374B08251D6014630424046096
:10240000862414600C071C608724D46280241C601E
:1024100082259564304ED664956356642F4CA5642E
:1024200066622566B51C2560832595675567751C12
:1024300015672B4D25618126D6631666D665294D15
:1024400055631665656125646563A563E563D566B7
:10245000D560A660966056655566A565E5655562CA
:1024600095621A46303A4C0414601A46403A1E4CA3
:1024700014601E4A1A608A071D4B1C6814431C60B6
:10248000C9071C4A136A0B43136213680B4313609A
:1024900001463039312252010A6001464039C023D9
:1024A0000B60C032026014480168144A0A4302609B
:1024B0000521890202690A4302611148016A114A31
:1024C0001143016201681143016070BD0C804240FC
:1024D000D0320A40D0120A40820004008C80424070
:1024E0008100010081000C0000800040008002405B
:1024F000A0130A4028100A4090330A4080000004CC
:1025000028300A4008206000F0B581B01B4C1C49FF
:102510002046FFF73DF81B492046FEF71BFF00252C
:10252000009510262046294632462B46FFF71CF818
:10253000204629462A46FFF709F87D204701204614
:1025400039462A46FFF71CF8012400940B48294617
:1025500032462B46FFF708F8084806462946224629
:10256000FEF7F4FF304639462246FFF709F80648E1
:1025700084600321016001B0F0BDC04600A0864028
:10258000D03A0000D43A000000B1864010B50D4C9E
:102590000D492046FEF736FE0C492046FEF710FE98
:1025A0000B4841680B4A0A40D11C416081681222E5
:1025B0000A432D218A438260016801220A43026096
:1025C00010BDC04600A04640DC3A0000DE3A0000E4
:1025D00004B1464000FCFFFF034804490A6802407A
:1025E0008242FBD17047C046000B200004020B4022
:1025F00070B51A48002404600F200002184E31689C
:10260000814301256802081830600320C143321F4E
:1026100013680B4013607168A943716029027268E6
:102620008A437260000364212A46FEF757FE0D4874
:10263000FEF7F2FD30681021014320208143316014
:1026400028033168014331602046FEF76FFEFF200A
:102650000002AB490A6882430A6070BD08030B4060
:1026600004010B40E83A00000548042101604F21B5
:10267000416000218160016805220A4302607047C1
:1026800010E000E010B50D4C0D492046FEF780FF2C
:102690000C492046FEF7E2FE0B48016802220A437D
:1026A0000260FF2000061B490A688243032080075E
:1026B0001018086005480121016010BD0020864007
:1026C000103B0000143B0000283086400831864053
:1026D00010B50C4C0C492046FEF75AFF0B4920461A
:1026E000FEF7BCFE0A480168012211430160094857
:1026F0000168C0230B433F218B43036006480260FF
:1027000010BDC04600400840283B00002C3B0000A4
:102710002850084010E400E00851084010B5154C5E
:1027200015492046FEF766FF14492046FEF73EFF96
:102730000320C103124802688A43026001696E4A9D
:102740000A40911C016141690B220A4334218A43EA
:102750004261416801221140436893435918416026
:102760009102084B1C680C431C6001681143016016
:1027700010BDC04600801040403B0000423B0000BE
:102780000091104028901040B0B5184C18492046D0
:10279000FEF730FF17492046FEF708FF0320C1036C
:1027A000154802688A430260026953490A4034327C
:1027B00002614269052313433A229343436143680C
:1027C0000122134044689443E318436093020B4C86
:1027D00025681D432560FF31284B1C680C40D10340
:1027E00061181960016811430160B0BD000010401C
:1027F0004C3B00004E3B00000011104028101040E0
:1028000010B5194C19492046FEF7F4FE1849204628
:10281000FEF7CCFE0320C103164802688A4302601B
:102820000169354A0A40911C016141690B220A4342
:1028300034218A434261426801210A4043688B4344
:102840009A1842608A020C4B1C6814431C60FF22D9
:1028500012040A4B1C689443CA05A2181A60026845
:102860000A43026010BDC04600201040583B0000E3
:102870005A3B000000311040283010400CE400E0CA
:1028800010B5194C19492046FEF7B4FE18492046E8
:10289000FEF78CFE0320C103164802688A430260DB
:1028A0000169154A0A400A320261416936220A4327
:1028B00009218A434261426801210A4043688B43EF
:1028C0009A1842608A020D4B1C6814431C60FF2258
:1028D00012060B4B1C689443CA07A2181A600268C0
:1028E0000A43026010BDC04600005040643B000037
:1028F000663B0000001150400000FFFF28105040D0
:1029000000E400E080B500F037F8FFF763FDFFF763
:102910006FFE00F081F8FFF7F7FDFFF7D9FEFFF734
:10292000B1FEFFF7FBFEFFF72FFFFFF769FFFFF791
:10293000A7FFFFF72BFEFFF713FDFFF795FEFFF74D
:102940004BFE9C20074900220A54B82006490A542D
:1029500006490A542C2006490A54242005490A54E1
:1029600080BDC0462C05202010072020F405202023
:10297000B0062020CC052020F0B581B01848194AB7
:10298000426019484260194842601948426019483B
:10299000426019484260194F7A60194D6A60194CBB
:1029A0006260194B5A6019494A6019484260194AD5
:1029B0000B4E32600C4E32600C4E32600C4E326068
:1029C0000C4E32600C4E32603A602A6022601A600F
:1029D0000A6002601020FEF7EDFB01B0F0BDC046BA
:1029E00000080A40030000B100280A4000088640A1
:1029F00000A8864000480840002886400088104013
:102A000000081040002810400008504000A8464030
:102A10000008004001000026F0B583B02E4C2F497D
:102A20002046FEF7B5FD2E492046FEF793FC002513
:102A30000095204629462A462B46FEF795FD20465E
:102A400029462A46FEF782FD7D20C60020463146F3
:102A50002A46FEF795FD01270097204629462A467B
:102A60002B46FEF781FD204629463A460297FEF79F
:102A70006DFD2046314634463A46FEF781FD02267A
:102A80000096154F384629462A462B46FEF76CFD20
:102A9000384629463246FEF759FD38462146324629
:102AA000FEF76EFD03260096384629462A462B4639
:102AB000FEF75AFD384629463246FEF747FD3846AE
:102AC00021463246FEF75CFD0648029981600F21DF
:102AD000016003B0F0BDC04600008640703B0000BE
:102AE000743B000000118640F0B581B00446012718
:102AF000B90740B2414E0028009101D4316100E095
:102B000031600425284600F00FFBFF03376028469C
:102B100000F00AFB3761600602D40098306101E0E2
:102B2000009830600425284600F0FEFA37602846F9
:102B300000F0FAFA3761A00602D40098306101E093
:102B4000009830600425284600F0EEFA37602846E9
:102B500000F0EAFA3761E00602D40098306101E043
:102B6000009830600425284600F0DEFA37602846D9
:102B700000F0DAFA3761200702D40098306101E0F2
:102B8000009830600425284600F0CEFA37602846C9
:102B900000F0CAFA3761600702D40098306101E0A2
:102BA000009830600425284600F0BEFA37602846B9
:102BB00000F0BAFA3761A00702D40098306101E052
:102BC000009830600425284600F0AEFA37602846A9
:102BD00000F0AAFA3761E00702D10098306101E005
:102BE000009830600424204600F09EFA37602046AA
:102BF00000F09AFA376101B0F0BDC04690120A4069
:102C000010B5B42800D3B4200E490860FEF746F989
:102C10000D49FEF729F80D4900F048FD0C4C2146FE
:102C200000F0D4FC3F21090600F0D0FC214600F062
:102C30003DFDFEF7EFF8014606480022FEF7A0FC36
:102C400010BDC0462C032020000034430000204269
:102C50000000204100A0864004480068C0B202285D
:102C600003D103480168491C016070472030864049
:102C70006408202080B50B480068C0B2012810D13C
:102C800000F07AFAFEF790FE07480178491C0170BF
:102C9000C9B20A2905D3002101700120400403496B
:102CA000086080BD205008400E072020B0120A4066
:102CB000054801680122114301601004F8490860C9
:102CC000F84908607047C04604580840F0B581B024
:102CD0000446FEF7DBF801461A4F386800F076FC30
:102CE00005463860184E314600F065FC002806D1D4
:102CF000164E2846314600F053FC002801D13E60B4
:102D0000354682206043FDF756FE06460F462846AC
:102D1000FDF780FF0E4A0F4BFDF758FE32463B464B
:102D2000FDF7F8FD05460E4605206043FDF743FE1E
:102D300002460B4628463146FDF7ECFDFDF730FC18
:102D400001B0F0BD300320200000C8420000C8C21E
:102D5000333333333333C33F10B50E480068C0B24A
:102D60000B2815D10C48C1690C4A13887E2B0AD850
:102D700013885C1C14800A4AD1540268D207FCD123
:102D8000C9B2816101E00020108006480121017074
:102D900010BDC046209010400891104042092020EC
:102DA000C00820204009202010B507480068C0B2A4
:102DB0000B2808D105480068C4B22046FEF724FC61
:102DC000204600F0C7FA10BD20101040241110401A
:102DD00080B50E480068C0B20B2816D10C480168B7
:102DE0000C480288C62A0BD80288531C03800A4B61
:102DF00099540088185C0949094AFFF76FFA01E005
:102E00000021018007480121017080BD2030104061
:102E1000243110400E0A2020440920200C072020D5
:102E20000D0720200C0A2020F0B581B02248006850
:102E3000C0B20B2839D1214B9C88214A1568002744
:102E4000C72C01D926461DE0601C988058881918A7
:102E50008D71401CC8263146FDF7A2FA184A174B5F
:102E60005980C72C0ED0A61C9E8058188571481C0E
:102E7000C2B2D208192A01D339310846C0B25880EB
:102E800001270F4A0F480770007800280FD01068FC
:102E9000C72E0AD8711C998059885A189071481CFD
:102EA000C8211C46FDF77CFA618001B0F0BDFFF738
:102EB000F5F801B0F0BDC0462010504002042020BB
:102EC00024115040100A2020F0B581B01F4E3078F8
:102ED000002833D01E480068421C6B4C1D4D204614
:102EE0002946FDF74FF950212846FDF757FA237878
:102EF000002B1AD000201849224604E0401C235C15
:102F0000521C002B11D0342BF8D10023032B13D0EB
:102F1000D55C002DF2D0D5186D78CF187F785B1C6A
:102F2000AF42F3D0032BE9D106E0FEF79FFB00F0A0
:102F30008FF8554800210170002030700748007854
:102F4000022801D1FEF76EFC01B0F0BD6808202018
:102F500004072020CC072020A23B0000FC062020F4
:102F60000120C00482490860824908607047C04659
:102F7000F0B581B00446344D2F46103F0120860243
:102F80003E60200604D42E60012000F0CDF803E05E
:102F9000012000F0C9F82E603E60600604D42E6067
:102FA000012000F0C1F803E0012000F0BDF82E6020
:102FB0003E60A00604D42E60012000F0B5F803E0C6
:102FC000012000F0B1F82E603E60E00604D42E60CF
:102FD000012000F0A9F803E0012000F0A5F82E6020
:102FE0003E60200704D42E60012000F09DF803E02D
:102FF000012000F099F82E603E60600704D42E6036
:10300000012000F091F803E0012000F08DF82E601F
:103010003E60A00704D42E60012000F085F803E094
:10302000012000F081F82E603E60E00705D12E609F
:10303000012000F079F801B0F0BD012000F074F833
:103040002E6001B0F0BDC046A0320A4070470000BB
:1030500010B50D48007A3238C1B2022904D840B206
:1030600080000A490C5800E000240020214600F0AE
:1030700057F90120214600F053F900F03FF9C8202C
:1030800000F03AF810BDC046DC0220209438000061
:1030900001204003C0490860C04908607047C0462D
:1030A00080E200E000E100E080B5FFF72BFC0120AA
:1030B000C003B9490860B94908600E48FDF73AF9FC
:1030C000FEF746F800F082F8FEF7A4FB00F044F8A3
:1030D000FFF766F8FEF7B6FCFFF742FF00F032F9A3
:1030E0005A20FFF78DFDFFF7D3FF00F03BF900F00A
:1030F00047F980BD7C3B0000B0B50A494143154803
:103100000368262206E0E41A051F2D686419A21838
:103110008A4206D21C4603689C42FCD0F3D9E41ACA
:10312000F5E7B0BD80380100B0B5502141430948F2
:103130000368262206E0E41A051F2D686419A21808
:103140008A4206D21C4603689C42FCD0F3D9E41A9A
:10315000F5E7B0BD18E000E080B58F4802210160BE
:1031600001608E4801600160FFF7A2FD80BDC0468E
:1031700080E200E000E100E070B50E4948680A68AE
:103180000D48436803684C680C684568056800266C
:103190004E600E608A608360D20F0A73DA0F02738A
:1031A0000A6912190A6146600660016949190161DC
:1031B00070BDC046200820203808202068490A68D1
:1031C000D207FCD1C2B28A617047C0467047FFF790
:1031D0006BFFFFF779FEFCE7F0B587B005A800218B
:1031E000017101910591F9204500404E30680007BA
:1031F0001DD400271420FFF797FF31680824781C9E
:10320000AF4202D821400746F4D03949401864281B
:103210000DD8306800070AD500271420FFF784FF77
:103220003068F82F03D820407F1C0028F5D1019C7E
:10323000029404E00298401C0290042837D00198C0
:1032400009E005A8029A815C490021438154049950
:10325000481C0729EED204900394306800070BD471
:1032600000241420FFF760FF3068AC4204D8082126
:103270000840641C0028F4D0306800240007204671
:103280000BD500271420FFF74FFF3168781CF82F6B
:1032900003D8082211400746F4D101460A392829EB
:1032A00000D3039C3C382828CBD20124C9E705A9C8
:1032B0004C78FF20224642400D78954211D105A955
:1032C000CF7878408E7886420BD1009709482946FE
:1032D00022463346FCF788FF0748C7708670447063
:1032E000057005A8007907B0F0BDC04680330A40DC
:1032F00070FEFFFF8E3B00008800202070B5074C59
:103300002068002808D000250D4E705DFFF730FEC4
:103310006D1C20688542F8D370BDC046080020208F
:10332000064A1268824208D303224243080A044B29
:10333000985498188170090C41707047040020203F
:103340008C0020200248016801220A430260704775
:1033500004B8864002490A68D207FCD188617047E8
:103360000891104080B5012080030B4908600B498B
:1033700008600248FEF7EEFF80BDC04634032020FF
:103380000548082101600548016005480021818049
:10339000418001807047C04680E200E000E100E02B
:1033A00002042020F0B581B017460C4606461046B0
:1033B000FDF76CFD3249FDF757FC324900F076F914
:1033C000054634433C433046FDF760FD002C39D0C0
:1033D0000646294600F0C2F9FDF7F6FC04462A4FDE
:1033E00038602846314600F0F1F8FDF7EDFC274B38
:1033F00018607D21C900264A88420D4602DC9042B1
:10340000154601DA1D6028468C4202DC94421146C2
:1034100001DA39600C465F4D6C8228825E490124D6
:103420000C7000B2FDF732FD01460020FEF7E4FE0D
:103430001220285EFDF72AFD01462046FEF7DCFE3D
:1034400001B0F0BD534F00253D61534E012434704F
:1034500028462946FEF7D0FE1220385EFDF716FDFD
:1034600001462046FEF7C8FE4C4805703570022024
:10347000FEF72CFE2046FEF7C3FA01B0F0BDC046B1
:1034800000007A440A171D43180A2020140A20203D
:1034900018FCFFFFF0B581B00C463D490C800728B1
:1034A00074D8800001A210588746C046CD34000071
:1034B0000F350000133500001D3500002B350000CE
:1034C00035350000413500005735000032480126EF
:1034D000067000250D802F4F3D6128462946FEF7D6
:1034E0008BFE1220385EFDF7D1FC01463046FEF718
:1034F00083FE2A480570284805700220FEF7E6FD85
:10350000601E84412046FEF77BFA01B0F0BD20B278
:1035100001E0604200B200210A4618E00420C043E6
:10352000C01C604302B2600802E0600861000AB299
:1035300000210CE01949002008700421C94303E070
:10354000164900200870052161430AB20146FFF7C1
:1035500029FF01B0F0BD0F4F00253D610E4E012443
:10356000347028462946FEF747FE1220385EFDF7E4
:103570008DFC01462046FEF73FFE08480570357079
:103580000220FEF7A3FD2046FEF73AFA01B0F0BD97
:1035900008072020500820200A0720200B072020A1
:1035A00010B500F059F8EFF30080800001D501203C
:1035B00010BD002010BD10B500F04EF8EFF30080F4
:1035C0004000800F012800D0002010BD70B50125FB
:1035D000ED0704004C4020D4441A01D2001B091905
:1035E000C60D4B00F2B2FF2A29D01B0E2CD00002D0
:1035F0000C0228432C43D31ADC40051910D2280AA8
:1036000002D3401C6D0611D0761EF6058019FF2AE4
:1036100000DA70BDC00DC00570BD694000F0A4F8AF
:1036200001200543C541521C761CE8E764089C4014
:10363000C90161408900E7D10124A043E4E71B0EE2
:10364000440200D0034870BD002AFCD1C00FC0075F
:1036500070BD00BF0000C07F0123DB0502000A43EC
:103660000DD4DA4203D49A4207D488427047D84234
:1036700014D4D94212D48842704780427047DA424B
:1036800003D59A42F9D5814270475B004200DA4285
:1036900004D24A00DA4201D28142704710B5024A90
:1036A000FDF79CFC10BD00BF0900130470B542007B
:1036B00064414B005C41120E39D01B0E38D0FF2AFA
:1036C0003CD0FF2B3AD0D2187F3A40024902400A40
:1036D000490A4518ED0106004E43000A090A48430D
:1036E0000104731A4019190C4318990F04D05B0890
:1036F000012149075B1A521CD80904D3401CF50369
:1037000001D19D0607D0FF2A08D2D50506D0E407CF
:103710002043401970BD0125A843F4E7002A01DCCD
:10372000E00770BD2402FF202043C00570BD1B0EC2
:10373000FF2A03D0FF2B01D0E00770BDFF2636061D
:103740004500B54206D84D00B54203D8D218FF2A2D
:1037500000D0E7E7004870BD0000C07F70B50125CC
:10376000ED0704004C4022D4441A02D26C40001BE6
:103770000919C60D4B00F2B2FF2A4BD01B0E50D0D8
:1037800000020C02A8432C43D31ADC40051B05D5CC
:10379000AD0019D36D08761E521E37D0F605280AE3
:1037A00001D2801970BD70416D0603D070BD6940B3
:1037B000FFF712FF9C4009026140490001D0401E02
:1037C00070BD0124A04370BD6D081DD001202B0CDD
:1037D00001D12D0410302B0E01D12D0208302B0FFA
:1037E00001D12D01001DAB0F01D1AD00801CEB0FED
:1037F00001D16D00401C361A121A6D00680AF505D9
:103800004019012A02DB70BD002070BDC036300AAD
:10381000C00770BD1B0E440201D1FF2B00D102482E
:1038200070BD002AF0D070BD0000C07F303132334F
:1038300034353637383941424344454640305800E4
:103840003031323334353637383961626364656616
:10385000403078008182838485868788898B8C8D2F
:103860008E8F919293959697999A9C9D9FA0A2A3D3
:10387000A5A7A8AAACAEB0B2B3B5B7B9BCBEC0C21A
:10388000C5C7C9CCCED1D4D7D9DCDFE2E6E9ECF0AC
:10389000F3F7FAFE0000FF0000FF0000FF00000049
:1038A0000000000000000000002F000000000700E2
:1038B000070000147F147F1400242A7F2A1200625C
:1038C0006408132300364955225000000503000008
:1038D00000001C224100000041221C000014083E90
:1038E00008140008083E0808000000A06000000856
:1038F00008080808000060600000002010080402AA
:10390000003E5149453E0000427F40000042615167
:103910004946002141454B31001814127F10002701
:1039200045454539003C4A494930000171090503C4
:1039300000364949493600064949291E00003636F5
:103940000000000056360000000814224100001458
:103950001414141400004122140800020151090635
:1039600000324959513E007C1211127C007F4949B6
:103970004936003E41414122007F4141221C007FE7
:1039800049494941007F09090901003E4149497AF5
:10399000007F0808087F0000417F4100002040416F
:1039A0003F01007F08142241007F40404040007FDB
:1039B000020C027F007F0408107F003E4141413E1F
:1039C000007F09090906003E4151215E007F091967
:1039D00029460046494949310001017F0101003F64
:1039E0004040403F001F2040201F003F4038403FE4
:1039F0000063140814630007087008070061514948
:103A0000454300007F41410000552A552A550000DA
:103A100041417F0000040201020400404040404058
:103A2000000001020400002054545478007F4844F0
:103A3000443800384444442000384444487F003827
:103A40005454541800087E0901020018A4A4A47C50
:103A5000007F080404780000447D4000004080841A
:103A60007D00007F102844000000417F4000007C62
:103A700004180478007C080404780038444444386E
:103A800000FC242424180018242418FC007C0804BA
:103A9000040800485454542000043F444020003C93
:103AA0004040207C001C2040201C003C4030403C1A
:103AB000004428102844001CA0A0A07C00446454AA
:103AC0004C441414141414140105000000000003E5
:103AD00008073100A00F00000001000008000400EA
:103AE00000000000071000000100000000000000BE
:103AF00000000000000000000000000010000000B6
:103B00000001000007000000010000002C00C4417B
:103B100004040000220000001F0300000000000059
:103B2000000000000000000008070900020000007B
:103B30000F2700000000000000000000000000004F
:103B4000040000001800000000300000080400001D
:103B50001800000000300000040000001800000001
:103B600000300000080300001800000000300000D2
:103B700008010000E803000000010000426F6172CC
:103B800064204750494F20496E6974200D00257804
:103B90002025782025782025780D0A00783A0079AC
:103BA0003A00345744000000C83B000000002020C9
:103BB0002800000008010000F03B00002800202041
:103BC000F811000028010000C800000002000000F9
:103BD0000600000000000000CDCCCC3E000000003C
:103BE000CDCCCC3D00000000000000000000000033
:04000005000000C136
:00000001FF
